:020000040000fa
:080000000001040000000000f3
:020000040000fa
:100008009401000094010000940100009401000094
:100018009401000094010000940100009401000084
:1000280094010000940100009401000010070000f2
:1000380094010000940100004207000094010000b0
:100048009401000094010000940100009401000054
:100058009401000094010000940100009401000044
:100068009401000094010000940100009401000034
:100078009401000094010000940100009401000024
:100088009401000094010000940100009401000014
:100098009401000094010000940100009401000004
:1000a80094010000940100009401000094010000f4
:1000b80094010000940100009401000094010000e4
:1000c80094010000940100009401000094010000d4
:1000d80094010000940100009401000094010000c4
:1000e80094010000940100009401000094010000b4
:0800f8009401000094010000d6
:020000040000fa
:100108009401000094010000940100009401000093
:100118009401000094010000940100009401000083
:1001280094010000940100009401000010070000f1
:1001380094010000940100004207000094010000af
:100148009401000094010000940100009401000053
:100158009401000094010000940100009401000043
:100168009401000094010000940100009401000033
:100178009401000094010000940100009401000023
:100188009401000094010000940100009401000013
:100198009401000094010000940100009401000003
:1001a80094010000940100009401000094010000f3
:1001b80094010000940100009401000094010000e3
:1001c80094010000940100009401000094010000d3
:1001d80094010000940100009401000094010000c3
:1001e80094010000940100009401000094010000b3
:0801f8009401000094010000d5
:020000040000fa
:100200002f8120000e7f22000e01880000000000d8
:1002100000012000200288000c000700e07d200083
:100220000100200011000700000020000000e00095
:10023000020032000000020000000000c6060200ba
:10024000000000000040da000000fe004440a90069
:10025000000020000000e000030032000000200049
:10026000a00188004440a800000006009101880019
:10027000800078000000eb0015003700e2804000ad
:1002800032a0b4009101ba00e280400032a0b40074
:100290009102ba00e280400032a0b4000002eb00fc
:1002a000472bde00f507b200602ce10004003a00a5
:1002b0000059eb008301e900fdff3e000400370018
:1002c0006128e100010032000082eb000400070019
:1002d0001101ba000200e000e8ff3a000000060049
:1002e0003159ba008301e9000c0032002159ba00eb
:1002f0008301e900080032000400e00003003a0036
:10030000e280400032a0b400f5ff370011d9ba00f6
:100310008301e900faff3a008100e800e180400033
:1003200032a0b400000006000040da000000fe0029
:10033000889fbe008a9fbe008c1f7800ba0007000d
:10034000c100330003866c006450e1002e003200cf
:100350006420e100330032006150e1002f003200e0
:100360006120e1003100320085855500eb07b000c7
:10037000090020000804200005003700080444009c
:1003800089844c000a0031000603430087834b0038
:100390000001530081815b00f8ff33000203be00bf
:1003a0000800a0000804440089844c00f6ff3900ce
:1003b000c639dd0083017300010032001300200004
:1003c0008904d1000884d3000998a30005003200f5
:1003d0000800a7000300a0008904d1000884d3000e
:1003e0008b05e8008904d1000884d3000001eb00ec
:1003f0000281d2005100070001f0a1000cf0a7001b
:1004000001f0a000990037006420e1009b00320059
:100410000801be000200be00f7ff37006120e100c6
:10042000960032006000b800f3ff370000002000a3
:1004300001f82700f0ff37000001be00650007004b
:100440000470a70003f0a1006509b1001600320096
:100450000d0035006828e10006003500f0ff2f0090
:10046000f1ff27000300e00013003b00010028001b
:100470000000050000004000818048008502e9007e
:10048000fcff3a0008003700f88f420002003c00f1
:100490008000eb00000005008100d1000080d30047
:1004a0008502e800fcff3a000300e00002003b0088
:1004b00060001000e0801800000006000001be008f
:1004c000440007000470a70003f0a10003f8a30094
:1004d00013003a006509b100100032000900350030
:1004e0006928e10002003500010028000000050035
:1004f00000004000818048008502e900fcff3a00ce
:1005000000000600f88f4200050035008100d10090
:100510000080d3008502e800fcff3a0000000600de
:100520008000eb00000005004f89de0082017800aa
:10053000890037006011b800970037008100200063
:10054000618055000b003d000b00200061fe2f0074
:100550000100e1001d00340082817100610164002e
:100560008904d1000884d3000000e800faff3a00b3
:100570007100200061006400030070000200600050
:100580000900320061044400e0844c000988a500a1
:10059000050032008b05e8006808e10002003a001f
:1005a0008904d1000884d300f20f20000258e10032
:1005b00005003d00c75ddd00f907b20089807500c8
:1005c00008007800000006000bf827008b00780078
:1005d00000000500c70ade00f107b200f50fb20007
:1005e00008003200e1cf4200020032000170a0009a
:1005f00024000500810f700001003200040805008e
:1006000044000500810f700002003a00140005004c
:100610008502e9000000400081c04800fcff3b006b
:100620000170a000240005000004be00e9ff0700df
:100630000003be000405be000200be00e5ff070087
:10064000844f7500000006000200be006450e10007
:10065000050036006420e100020036000968a300ae
:1006600001003a000800be000160a0004f067800bb
:100670004f05be004f04be0000000600f0ff2f0033
:10068000f1ff2700f9ff3700889fbe008a9fbe0058
:100690008c1f7800e4ff0700ebff330003866c003b
:1006a0006450e100240032006420e10027003200a1
:1006b0006150e100220032006120e100210032009f
:1006c0008b854200eb07b1000134b800003ab80056
:1006d0000804420089844a00013ab8000030b8009a
:1006e0008880400009014a000400330000004000f7
:1006f00081804800020149008b05e900c909dd003d
:10070000830170000100320013002000c814de00d5
:100710004814dd004709de001200b200c808de0000
:100720000884700085ff070001f0a1000cf0a7000d
:1007300001f0a000cdff37006120e100cfff3200c3
:100740000801be000200be00f7ff37006150e10063
:10075000fcff3a00c9ff3700881f780003047800c7
:100760000300e00007003d0060001000e08018007a
:1007700060011900e081190002003b0001f02d002a
:10078000030037000400070008f0a70001f0a000f4
:100790004f04780000000600889fbe008a9fbe00bc
:1007a0000082700004027100048271002600320091
:1007b0000004be000200be006011b8006b092000fa
:1007c000950220000182cf000a0039000541b100e6
:1007d0000082cf00070039000541b1000982cf0037
:1007e000040039000541b1000882cf000100390042
:1007f0000541b10005425200120032000a003b00e0
:1008000082817100610164008100d1000080d30009
:100810008984d3000884d3008b05e8000442e800f3
:10082000f7ff3a00070037000804440089844c00b1
:1008300000004800818048008b05e9000442e9007f
:10084000f9ff3a003dff07004f05be004f04be0010
:04085000000006009e
:020000040000fa
:100854000400fa00f400200005002000048fbe000c
:10086400c602a900c622a900c642a900c662a90000
:10087400c682a900c6a2a900ca02a900ca22a90068
:10088400ca42a900ca62a900ca82a900caa2a900d0
:100894001e00be00b6010700ca02a900ca22a800b1
:1008a400ca42a900ca62a800ca82a900caa2a800b2
:1008b4001e00be00ae010700ca02a800ca22a8009a
:1008c400ca42a800ca62a800ca82a800caa2a80094
:1008d4001e00be00a6010700ca02a800ca22a90081
:1008e400ca42a800ca62a900ca82a800caa2a90072
:1008f4001e00be009e010700ca02a900ca22a90068
:10090400ca42a900ca62a900ca82a900caa2a9004f
:10091400044080001540800061024200e0824a00e9
:1009240004408800154088000080fa00000006009a
:100934000400fa00f400200005002000048fbe002b
:10094400c602a900c622a900c642a900c662a9001f
:10095400c682a900c6a2a900ca02a800ca22a90088
:10096400ca42a800ca62a900ca82a800caa2a900f1
:100974001e00be007e010700ca02a800ca22a80009
:10098400ca42a800ca62a800ca82a800caa2a800d3
:100994001e00be0076010700ca02a900ca22a800f0
:1009a400ca42a900ca62a800ca82a900caa2a800b1
:1009b4001e00be006e010700ca02a900ca22a900d7
:1009c400ca42a900ca62a900ca82a900caa2a9008f
:1009d4001e00be0066010700ca02a800ca22a900c0
:1009e400ca42a800ca62a900ca82a800caa2a90071
:1009f400044080001540800061025200e0825a00e9
:100a040004408800154088000080fa0000000600b9
:100a14000400fa0006408000174080002440800053
:100a240035408000041f530005975b001e00be0084
:100a3400bcfe07000002be000200200003f02300f9
:100a44000400be000fff07000002be000400be0049
:100a540078fe07000002be00048fbe000440800040
:100a64001540800024408800354088001e00be00e8
:100a7400acfe07000002be00a2702d0033c22300aa
:100a84000400be0029fe07000002be000400be00f0
:100a940068fe07000002be0004027800040078002b
:100aa4000080fa00000006000000fa000440800004
:100ab400154080000400be009afe07000002be003c
:100ac4000200200003f023000400be00edfe070036
:100ad4000002be000400be0056fe07000002be0075
:100ae4000400be000080fa00000006000200fa00c4
:100af4000042eb00044f7800c7c2a900d302a9004a
:100b0400d202a800cbc2a900d702a8004006200048
:100b14000100200016010700cbc2a900d702a900da
:100b2400a00020000100200011010700a41680008d
:100b340061026200e00f520003003a0014c0b300e7
:100b4400044f7800020037000042eb00044f7800a5
:100b54001e427800044078000080fa00000006007d
:100b64000800fa00a4002000040f7800040020000c
:100b740005f02300140798002507980045408000dd
:100b84007440800004825200340798003e029000b2
:100b9400e00f52001e0032003e029000e00f5200af
:100ba400020035001e02ea00010037001e02780030
:100bb40045408000050242004440880044408000d3
:100bc400050020000400be0059fe07000002be001c
:100bd4001e019000ae0190000400be00d3fd07008a
:100be4000002be000401be0000b0210071bb24005d
:100bf400cefd07000002be000400be002efe07006a
:100c04000002be00040278001408880001003700c6
:100c1400000000000080fa00000006000800fa004e
:100c2400043e290045002000048fbe009eff0700fb
:100c34000002be0024079800350798005440800045
:100c4400e00f520005003a002e029000be02900010
:100c5400be0f5200ae8f5a0008003d005440800081
:100c6400e10f520008003a002e029000be029000ec
:100c7400e00f5200e08f5a0003003c0005e1a90098
:100c84000002eb00744088000080fa0000000600b7
:100c94000c00fa00043e290045002000048fbe0029
:100ca40004b22c00050020002407980035079800a2
:100cb4007dff07000002be00440798005507980016
:100cc40054408000e00f520009003a002e029000c8
:100cd400be0290003e031200ae831a004e02900042
:100ce400de029000840f5300858f5b000a003400fd
:100cf40054408000e10f520009003a004e03900076
:100d0400de0390002e029000be029000840f530078
:100d1400858f5b0002003c000419200074408800a9
:100d24000080fa00000006000000fa002508800098
:100d34000400280004826200e00f52000a003a0016
:100d44005440800061021200544088000471220063
:100d54007440880000b42400c1042000840007000b
:100d640005e1a80001003700000000000080fa003f
:100d7400000006000000fa005440800004007800df
:100d84000080fa00000006000400fa00881f7800c2
:100d9400000f7800110798000082eb0044158800ca
:100da400006c2c00d102200071000700cda2a90024
:100db400d1a2a800480007005a00070004812000bf
:100dc400144278000404fb0048ff07000042780046
:100dd4000482fb00840f540002003a00000000006b
:100de400f6ff370041ff0700004278000440780016
:100df40010e8b7000481200014427800e04f52004c
:100e04000300320005e1a80011e1a800ebff370060
:100e140005e1a90011e1a900e8ff37003600f80058
:100e2400809fbe00829fbe00849fbe00869fbe003e
:100e34003400f80000002000a00188000000fa003f
:100e44008460a900cbff070000027800e00f520085
:100e540002003a007efe070001003700b4fe0700de
:100e64000080fa003400f9004f03be004f02be00b8
:100e74004f01be004f00be003600f90000400600de
:100e84003600f800809fbe00829fbe00849fbe0093
:100e9400869fbe003400f80000002000a0018800f6
:100ea4000000fa0084c0a9009fff07002cff070080
:100eb4005aff070076ff07000080fa003400f900ab
:100ec4004f03be004f02be004f01be004f00be00e4
:100ed4003600f900004006000000fa000002eb00b2
:100ee40024088800240880000440a1000450a100c4
:100ef4002408880004c4290014088800a40480007d
:100f040004c0a10004d0a00004e0a000a404880050
:100f14008460a9008c60a80005e1a9000080fa00a3
:100f2400000006000000fa000002eb0084088800bc
:100f3400840880000440a0000450a00084088800b5
:100f4400943a200064088800b40480000480a0005f
:100f54000490a10004a0a000b404880084c0a900e7
:100f64008cc0a80011e1a9000080fa00000006006e
:100f74000800fa0020079800310798006022b800a2
:100f8400048fbe0004003700140020000500200078
:100f94001e0f42005e974a002e029000be0290008f
:100fa4001e03be00840f5300858f5b00f6ff3500df
:080fb4000080fa0000000600b5
:020000040000fa
:100fbc00100800000200000002000000ff0000000a
:100fcc0000080000100000000200000000000000fb
:100fdc0000000000000000000000000000001000f5
:080fec002700000000000000d6
:020000040000fa
:0200000401f009
:04000000e7bf000056
:020000040000fa
:0200000401f009
:04000400ff7f00007a
:020000040000fa
:0200000401f009
:040008007fff000076
:020000040000fa
:0200000401f009
:04000c00ffff0000f2
:020000040000fa
:0200000401f009
:04001000ffff0000ee
:020000040000fa
:0200000401f009
:04001400ffff0000ea
:020000040000fa
:0200000401f009
:04001800ffff0000e6
:00000001FF
