:020000040000fa
:080000000001040000000000f3
:020000040000fa
:100008009401000094010000940100009401000094
:100018009401000094010000940100009401000084
:10002800940100009401000094010000a80f000052
:100038009401000094010000da0f00000c10000089
:100048009401000094010000940100009401000054
:100058009401000094010000940100009401000044
:100068009401000094010000940100009401000034
:100078009401000094010000940100009401000024
:100088009401000094010000940100006010000039
:100098009401000094010000940100009401000004
:1000a80094010000940100009401000094010000f4
:1000b80094010000940100009401000094010000e4
:1000c80094010000940100009401000094010000d4
:1000d80094010000940100009401000094010000c4
:1000e80094010000940100009401000094010000b4
:0800f8009401000094010000d6
:020000040000fa
:100108009401000094010000940100009401000093
:100118009401000094010000940100009401000083
:10012800940100009401000094010000a80f000051
:100138009401000094010000da0f00000c10000088
:100148009401000094010000940100009401000053
:100158009401000094010000940100009401000043
:100168009401000094010000940100009401000033
:100178009401000094010000940100009401000023
:100188009401000094010000940100006010000038
:100198009401000094010000940100009401000003
:1001a80094010000940100009401000094010000f3
:1001b80094010000940100009401000094010000e3
:1001c80094010000940100009401000094010000d3
:1001d80094010000940100009401000094010000c3
:1001e80094010000940100009401000094010000b3
:0801f8009401000094010000d5
:020000040000fa
:100200004f8320000e7f22000e01880000000000b6
:1002100000012000200288000c000700a027210018
:100220000100200011000700000020000000e00095
:10023000020032000000020000000000800f0200f7
:10024000000000000040da000000fe004440a90069
:10025000000020000000e000030032000000200049
:10026000a00188004440a800000006009101880019
:10027000800078000000eb0015003700e2804000ad
:1002800032a0b4009101ba00e280400032a0b40074
:100290009102ba00e280400032a0b4000002eb00fc
:1002a000472bde00f507b200602ce10004003a00a5
:1002b0000059eb008301e900fdff3e000400370018
:1002c0006128e100010032000082eb000400070019
:1002d0001101ba000200e000e8ff3a000000060049
:1002e0003159ba008301e9000c0032002159ba00eb
:1002f0008301e900080032000400e00003003a0036
:10030000e280400032a0b400f5ff370011d9ba00f6
:100310008301e900faff3a008100e800e180400033
:1003200032a0b400000006000040da000000fe0029
:10033000901c8800a11c880000000600e14f5000be
:1003400006003200e24f500006003200e04f50003d
:1003500009003a00701b800003003700f01a80008b
:1003600001003700701a8000680060000000e9009a
:100370004f00de00000006000040eb000000060019
:100380000002eb008180fb0009003700e04f5100c4
:100390000300320065372000e14f510001003200b8
:1003a0006538200065487a000402e8000000e80093
:1003b000810f5200f5ff350000000600401bde00f3
:1003c00007002000e1cf520008003200e2cf5200c7
:1003d0000a003200001b8800161b8800221b8800c0
:1003e0000003eb008483fb0012003700801a8800b2
:1003f000961a8800a21a8800f9ff3700001a8800b0
:10040000161a8800221a8800f5ff37006035200090
:10041000e1cf52000400320060362000e2cf5200eb
:1004200001003a006034200011707b000603e800f0
:100430008100e800870f5300f4ff35006f4262002f
:10044000e1cf52000a003200e2cf52001100320028
:10045000e0cf520018003a006f0262004322dd0034
:1004600075f82f00261b8000868262001700370077
:100470006f0262004322dd0075f82f00a21a80008f
:100480008282620004827200a41a88005e63a8005f
:10049000000006006f0262004322dd0075f82f00a5
:1004a000261a80008682620004827200241a880064
:1004b0004e63a800000006006f0262004322dd00c8
:1004c00075f82f00221b8000828262000482720075
:1004d000241b88006e63a80000000600889fbe00f1
:1004e000401cde00090020000003fb00cfb3de004b
:1004f000e50f5300e08f5b001e003e000660010028
:1005000005003700070037000a0037000d003700ec
:1005100010003700130037000118880018188800f1
:1005200016003700411888005818880062188800a3
:10053000130037008118880098188800a2188800d6
:100540000f003700c1188800d8188800e21888000a
:100550000b0037000119880018198800221988003b
:10056000070037004119880058198800621988006f
:100570000300370001188800181888002218880026
:100580004f04be0000000600401ade0005002000f7
:10059000e04f500006003200e14f500004003a00e6
:1005a000c1198800d4198800e219880000000600eb
:1005b0008119880094198800a2198800000006009b
:1005c000801c880000000600e04f5000040032004c
:1005d000e14f500002003a00f11b880000000600c5
:1005e000711c880000000600e14f5000030032003b
:1005f000e24f500005003a0002003700f11a88006f
:1006000000000600711a880000000600711b8800b7
:10061000000006009623ef008760a900c01c880038
:10062000e7826000cc2add00f4ff28000605800088
:10063000060262000502720004058800e88060007e
:10064000c308de00e1806000cb08dd00f47f2f00ee
:1006500075048000050262000102720074048800c3
:1006600000000600889fbe008a9fbe008c1f780095
:10067000ba000700c100330003866c006450e1003b
:100680002e0032006420e100330032006150e100ae
:100690002f0032006120e1003100320085855500d5
:1006a000eb07b00009002000080420000500370017
:1006b0000804440089844c000a003100060343000a
:1006c00087834b000001530081815b00f8ff3300fa
:1006d0000203be000800a0000804440089844c0006
:1006e000f6ff3900c639dd008301730001003200d6
:1006f000130020008904d1000884d3000998a300c6
:10070000050032000800a7000300a0008904d10002
:100710000884d3008b05e8008904d1000884d30045
:100720000001eb000281d2005100070001f0a1009e
:100730000cf0a70001f0a000990037006420e10050
:100740009b0032000801be000200be00f7ff370028
:100750006120e100960032006000b800f3ff37002e
:100760000000200001f82700f0ff37000001be0064
:10077000650007000470a70003f0a1006509b1003f
:10078000160032000d0035006828e1000600350033
:10079000f0ff2f00f1ff27000300e00013003b00f3
:1007a0000100280000000500000040008180480092
:1007b0008502e900fcff3a0008003700f88f42008c
:1007c00002003c008000eb00000005008100d10029
:1007d0000080d3008502e800fcff3a000300e0003f
:1007e00002003b0060001000e080180000000600de
:1007f0000001be00440007000470a70003f0a10040
:1008000003f8a30013003a006509b100100032009c
:10081000090035006928e1000200350001002800c8
:100820000000050000004000818048008502e900ca
:10083000fcff3a0000000600f88f4200050035007a
:100840008100d1000080d3008502e800fcff3a005f
:10085000000006008000eb00000005004f89de006c
:1008600082017800890037006011b80097003700d6
:1008700081002000618055000b003d000b0020002e
:1008800061fe2f000100e1001d0034008281710033
:10089000610164008904d1000884d3000000e800ed
:1008a000faff3a007100200061006400030070004c
:1008b000020060000900320061044400e0844c0042
:1008c0000988a500050032008b05e8006808e100f2
:1008d00002003a008904d1000884d300f20f2000fe
:1008e0000258e10005003d00c75ddd00f907b200d8
:1008f0008980750008007800000006000bf82700ca
:100900008b00780000000500c70ade00f107b20086
:10091000f50fb20008003200e1cf420002003200c1
:100920000170a00024000500810f7000010032005a
:100930000408050044000500810f700002003a0021
:10094000140005008502e9000000400081c0480055
:10095000fcff3b000170a000240005000004be0065
:10096000e9ff07000003be000405be000200be0050
:10097000e5ff0700844f7500000006000200be007e
:100980006450e100050036006420e10002003600fa
:100990000968a30001003a000800be000160a00041
:1009a0004f0678004f05be004f04be000000060051
:1009b000f0ff2f00f1ff2700f9ff3700889fbe00ee
:1009c0008a9fbe008c1f7800e4ff0700ebff330016
:1009d00003866c006450e100240032006420e100d2
:1009e000270032006150e100220032006120e10066
:1009f000210032008b854200eb07b1000134b800c2
:100a0000003ab8000804420089844a00013ab8005c
:100a10000030b8008880400009014a00040033001b
:100a20000000400081804800020149008b05e90078
:100a3000c909dd00830170000100320013002000ad
:100a4000c814de004814dd004709de001200b200c1
:100a5000c808de000884700085ff070001f0a100cf
:100a60000cf0a70001f0a000cdff37006120e100ed
:100a7000cfff32000801be000200be00f7ff3700c2
:100a80006150e100fcff3a00c9ff3700881f780081
:100a9000030478000300e00007003d006000100040
:100aa000e080180060011900e081190002003b009d
:100ab00001f02d00030037000400070008f0a70034
:100ac00001f0a0004f04780000000600889fbe00df
:100ad0008a9fbe00008270000402710004827100cf
:100ae000260032000004be000200be006011b80003
:100af0006b092000950220000182cf000a00390016
:100b00000541b1000082cf00070039000541b10066
:100b10000982cf00040039000541b1000882cf00ee
:100b2000010039000541b1000542520012003200b7
:100b30000a003b0082817100610164008100d100e4
:100b40000080d3008984d3000884d3008b05e8009b
:100b50000442e800f7ff3a000700370008044400a9
:100b600089844c0000004800818048008b05e90022
:100b70000442e900f9ff3a003dff07004f05be00bf
:080b80004f04be000000060056
:020000040000fa
:100b88000400fa00f400200005002000048fbe00d5
:100b9800c602a900c622a900c642a900c662a900c9
:100ba800c682a900c6a2a900ca02a900ca22a90031
:100bb800ca42a900ca62a900ca82a900caa2a90099
:100bc8001e00be0062060700ca02a900ca22a800c9
:100bd800ca42a900ca62a800ca82a900caa2a8007b
:100be8001e00be005a060700ca02a800ca22a800b2
:100bf800ca42a800ca62a800ca82a800caa2a8005d
:100c08001e00be0052060700ca02a800ca22a90098
:100c1800ca42a800ca62a900ca82a800caa2a9003a
:100c28001e00be004a060700ca02a900ca22a9007f
:100c3800ca42a900ca62a900ca82a900caa2a90018
:100c4800044080001540800061025200e0825a0092
:100c580004408800154088000080fa000000060063
:100c68000400fa00f400200005002000048fbe00f4
:100c7800c602a900c622a900c642a900c662a900e8
:100c8800c682a900c6a2a900ca02a800ca22a90051
:100c9800ca42a800ca62a900ca82a800caa2a900ba
:100ca8001e00be002a060700ca02a800ca22a80021
:100cb800ca42a800ca62a800ca82a800caa2a8009c
:100cc8001e00be0022060700ca02a900ca22a80008
:100cd800ca42a900ca62a800ca82a900caa2a8007a
:100ce8001e00be001a060700ca02a900ca22a900ef
:100cf800ca42a900ca62a900ca82a900caa2a90058
:100d08001e00be0012060700ca02a800ca22a900d7
:100d1800ca42a800ca62a900ca82a800caa2a90039
:100d2800044080001540800061024200e0824a00d1
:100d380004408800154088000080fa000000060082
:100d48000400fa000640800017408000244080001c
:100d580035408000041f530005975b001e00be004d
:100d6800bcfe07000002be000200200003f02300c2
:100d78000400be000fff07000002be000400be0012
:100d880078fe07000002be00048fbe000440800009
:100d98001540800024408800354088001e00be00b1
:100da800acfe07000002be00a2702d0033c2230073
:100db8000400be0029fe07000002be000400be00b9
:100dc80068fe07000002be000402780004007800f4
:100dd8000080fa00000006000000fa0004408000cd
:100de800154080000400be009afe07000002be0005
:100df8000200200003f023000400be00edfe0700ff
:100e08000002be000400be0056fe07000002be003d
:100e18000400be000080fa00000006000800fa0086
:100e28007441800085418000048fbe0004002000ca
:100e380005f0230024079800350798001e00be001f
:100e480084fe07000002be002e019000be01900043
:100e58000400be0001fe07000002be000400be0040
:100e680040fe07000002be000440880015408800cc
:100e78000080fa00000006000200fa000042eb00c1
:100e8800044f7800c7c2a900d342a900d202a80023
:100e9800cbc2a900d742a800a00020000100200072
:100ea800ab050700cbc2a900d742a900a0002000cb
:100eb80001002000a6050700a41680006102620058
:100ec800e00f520003003a0014c0b300044f78004a
:100ed800020037000042eb00044f78001e42780001
:100ee800044078000080fa00000006000200fa00c2
:100ef8000042eb00044f7800c7c2a900d342a90002
:100f0800d222a800cbc2a900d742a800a000200086
:100f1800010020008e050700cbc2a900d742a90016
:100f2800a00020000100200089050700a416800009
:100f380062026200e00f520003003a0014c0b300de
:100f4800044f7800020037000042eb00044f78009d
:100f58001e427800044078000080fa000000060075
:100f68000200fa000042eb00044f7800c7c2a90053
:100f7800d342a900d242a800cbc2a900d742a800f8
:100f8800a00020000100200071050700cbc2a900c5
:100f9800d742a900a0002000010020006c0507002e
:100fa800a416800064026200e00f520003003a00b9
:100fb80014c0b300044f7800020037000042eb0071
:100fc800044f78001e427800044078000080fa0040
:100fd800000006000000fa00e1ff07000042780068
:100fe800e14f520032003a00c7c2a900d342a9001b
:100ff800d262a800d282a800cbc2a900d742a8001a
:10100800a00020000100200051050700cbc2a90064
:10101800d742a900a0002000010020004c050700cd
:10102800a416800068026200e00f520009003a002e
:10103800a416800070026200e00f52000500320022
:101048000002eb00544088000002eb0024418800b5
:1010580017003700a416800068026200e00f5200f3
:1010680009003200a416800070026200e00f5200ee
:1010780005003a0014002000544088000002eb00ec
:10108800244188000a003700a41680006802620024
:10109800e00f520006003200a416800070026200c1
:1010a800e00f5200020032001400200024418800a2
:1010b8000080fa00000006000200fa000042eb007f
:1010c800044f7800c7c2a900d342a900d2a2a80041
:1010d800cbc2a900d742a800a00020000100200030
:1010e8001b050700cbc2a900d742a900a000200019
:1010f8000100200016050700a51680000402200044
:1011080004826200e00f520003003a0014c0b300ea
:10111800044f7800020037000042eb00044f7800cb
:101128001e427800044078000080fa0000000600a3
:101138000400fa00100798001e0290000482ea00da
:101148008582ea00140798009516800004f02f00a5
:101158000482620094168800d302a900d322a90051
:10116800d342a900d362a900c7c2a900d742a900e7
:10117800d762a900cbc2a8001e029000044f7800d5
:101188001e42780061426200614262006142620070
:101198000482fb0061026200b6168000e5ff2f00a2
:1011a8008502630004827200b41688001e02fb00e8
:1011b8000482d100044f78001e4278006142620028
:1011c80061426200614262000482fb0061026200c7
:1011d80004024200b6168000d5ff2f008502630086
:1011e80004827200b41688001e02fb000482d1003b
:1011f800044f78001e42780061426200614262003a
:10120800614262000482fb00610262004222dd004a
:10121800b6168000b5ff2f008502630004827200b5
:10122800b41688001e02fb000482d100044f780027
:101238001e427800614262006142620061426200bf
:101248000482fb00610262004322dd00b6168000c2
:1012580075ff2f008502630004827200b4168800af
:101268001e02fb000482d100044f78001e42780061
:101278006142620061426200614262000482fb00d6
:10128800610262004422dd00b6168000f5fe2f00e0
:101298008502630004827200b41688001e02fb00f7
:1012a8000482d100044f78001e4278006142620037
:1012b80061426200614262000482fb0061026200d6
:1012c8004522dd00b6168000f5fd2f00850263007b
:1012d80004827200b41688001e02fb000482d1004a
:1012e800044f78001e427800614262006142620049
:1012f800614262000482fb00610262004622dd0056
:10130800b6168000f5fb2f00850263000482720088
:10131800b41688001e02fb000482d100044f780036
:101328001e427800614262006142620061426200ce
:101338000482fb00610262004722dd00b6168000cd
:10134800f5f72f008502630004827200b416880046
:101358001e02fb000482d100044f7800d702a800c7
:10136800400620000100200079040700d702a900e8
:101378004006200001002000750407001e029000ae
:101388004822de00044f78001e4278006142620065
:1013980061426200614262000482fb0061026200f5
:1013a800b6168000e5ff2f008502630004827200f4
:1013b800b41688001e02fb000482d100044f780096
:1013c8001e4278006142620061426200614262002e
:1013d8000482fb006102620004024200b61680002b
:1013e800d5ff2f008502630004827200b4168800be
:1013f8001e02fb000482d100044f78001e427800d0
:101408006142620061426200614262000482fb0044
:10141800610262004222dd00b6168000b5ff2f008f
:101428008502630004827200b41688001e02fb0065
:101438000482d100044f78001e42780061426200a5
:1014480061426200614262000482fb006102620044
:101458004322dd00b616800075ff2f008502630069
:1014680004827200b41688001e02fb000482d100b8
:10147800044f78001e4278006142620061426200b7
:10148800614262000482fb00610262004422dd00c6
:10149800b6168000f5fe2f008502630004827200f4
:1014a800b41688001e02fb000482d100044f7800a5
:1014b8001e4278006142620061426200614262003d
:1014c8000482fb00610262004522dd00b61680003e
:1014d800f5fd2f008502630004827200b4168800af
:1014e8001e02fb000482d100044f78001e427800df
:1014f8006142620061426200614262000482fb0054
:10150800610262004622dd00b6168000f5fb2f005e
:101518008502630004827200b41688001e02fb0074
:101528000482d100044f78001e42780061426200b4
:1015380061426200614262000482fb006102620053
:101548004722dd00b6168000f5f72f0085026300fc
:1015580004827200b41688001e02fb000482d100c7
:10156800044f7800d722a800400620000100200080
:10157800f7030700d722a900400620000100200039
:10158800f30307000080fa00000006000800fa00d4
:1015980084002000040f78000400200005f02300d8
:1015a8001407980025079800454080007440800083
:1015b80004825200340798003e029000e00f520067
:1015c8001e0032003e029000e00f5200020035007b
:1015d8001e02ea00010037001e0278004540800024
:1015e8000502420044408800444080000500200075
:1015f8000400be009afc07000002be001e01900015
:10160800ae0190000400be0014fc07000002be00fa
:101618000401be0000b0210071bb24000ffc0700cc
:101628000002be000400be006ffc07000002be00fe
:101638000402780014088800010037000000000048
:101648000080fa00000006000400fa00e2fd07002e
:101658000002be00048fbe0054408000e00f52001c
:1016680006003a0054418000654180001e03be0018
:10167800840f5300858f5b001000340054408000b5
:10168800e10f520006003a00744180008541800055
:101698001e03be00840f5300858f5b0007003d00ca
:1016a80024418000e10f520007003a002cfe070099
:1016b80000427800e14f520003003a0005e1a9001a
:1016c8000002eb00744088000080fa000000060069
:1016d8001000fa0004352c0005002000048fbe001d
:1016e80004f72200c5ff2f0024079800350798004b
:1016f800440620000500200044079800550798007c
:10170800b5fd07000002be00640798007507980041
:101718006e039000fe0390002e029000be0290001f
:10172800840f5300858f5b000e003c002e03900051
:10173800be0390004e029000de02900004035300a6
:1017480085835b006e029000fe029000840f5300b8
:10175800858f5b0003003c002000200074fe07001a
:10176800130037006e029000fe029000be0f520078
:10177800ae8f5a000c0035004e029000de02900039
:101788003e034200ae834a006e029000fe029000c3
:10179800840f5300858f5b00030035001000200084
:1017a80063fe0700020037003000200060fe0700db
:1017b8000080fa00000006000400fa00e8fd0700b7
:1017c80000427800e04f52001d003a0082fd0700f9
:1017d8000002be00048fbe0054408000e00f52009b
:1017e80009003a005641800067418000844080002b
:1017f800954080000602420087824a00be0f5200d0
:10180800ae8f5a000c003d0054408000e10f52009a
:101818000b003a00764180008741800084408000b8
:10182800954080000402530085825b00be0f520081
:10183800ae8f5a0002003c00041920007440880052
:101848000080fa00000006000000fa002508800069
:101858000400280004826200e00f52001a003a00d7
:10186800bffd070000427800e14f520008003a002f
:1018780024418000e00f520005003a00006a280069
:10188800110020003203070005e1a8000f0037000f
:1018980009fe070000427800e14f52000b003a00b1
:1018a80004712200744088005440800061021200d4
:1018b80054408800006a2800110020002403070013
:1018c80005e1a80001003700000000000080fa00d0
:1018d800000006000000fa00544080000400780070
:1018e8000080fa00000006000000fa002441800091
:1018f800040078000080fa00000006000000fa00ea
:1019080034418000040078000080fa0000000600de
:101918000800fa0004f72200c5ff2f00048fbe005c
:1019280004352c000500200024079800350798008e
:101938008482200014427800e04f520016003a00da
:101948009482200014427800e04f520012003a00be
:1019580084c12f00f5ff2f003e034200ae834a00ea
:101968005441800065418000840f5300858f5b00df
:1019780009003d00564180006741800084c12f0066
:10198800f5ff2f000602420087824a005441880072
:10199800654188000b0037008482200014427800db
:1019a800e04f520004003a0094822000144278006c
:1019b800e04f5200030032001e02be00544188006e
:1019c800654188008482200014427800e04f52006c
:1019d80015003a009482200014427800e04f52002b
:1019e80011003a002e029000be0290000403be00cf
:1019f800863eb0000780b0007441800085418000b9
:101a0800840f5300858f5b00070034007441800009
:101a180085418000843eb0000580b0007441880094
:101a2800854188000c003700848220001442780029
:101a3800e04f520004003a009482200014427800db
:101a4800e04f5200040032002e029000be029000c7
:101a580074418800854188000080fa000000060073
:101a68000e00fa005007980061079800de02900007
:101a7800047820008482620004182000848f5200b9
:101a880046003a006022b800048fbe000002eb0056
:101a9800240798006e029000630242001442780006
:101aa800044378006e0290006402420014427800f9
:101ab800844278006e029000650242001442780069
:101ac8008043eb006747980076479800054f9800d9
:101ad800144f980066024700240798002e029000d1
:101ae8001402be00e00f5200e08f5a0002003d00d1
:101af800f40fb0000580b000482bdd004822de005e
:101b080004027300c8aade002e039000048bbe00f6
:101b18005e02900063026200e10f520003003a0087
:101b28002e029000341f7800241778005e0290007f
:101b380063026200e20f520003003a002e02900096
:101b4800341f7800241778005e0290006302620058
:101b5800e30f520003003a002e029000341f780071
:101b6800241778001e00be003afb07000002be00e2
:101b78000200200003f023000400be00b7fa0700ab
:101b88000002be000400be00f6fa07000002be0014
:101b9800044088001540880001003700000000005c
:101ba8000080fa00000006000800fa0020079800ec
:101bb80031079800ae029000047820008482620009
:101bc80004382000848f52004a003a003e029000f8
:101bd8001442780004cfea003e02900064024200fa
:101be80014427800144798001e407800684260004c
:101bf8000440780028e8b7009e42780070c262006e
:101c08000440780029e8b7001e4290008402fb00d7
:101c18000404200004826200140798001e02900049
:101c2800e00f5200190034002e0290006302620097
:101c3800e10f520004003a001400200005002000c3
:101c4800b4408800c54088002e02900063026200fc
:101c5800e20f520004003a001400200005002000a2
:101c6800d4408800e54088002e029000630262009c
:101c7800e30f52001d003a00140020000500200068
:101c8800f440880005418800180037001e029000c3
:101c9800e00f520015003a002e0290006302620025
:101ca800e10f520003003a006022b800b4408800f7
:101cb800c54088002e02900063026200e20f5200c5
:101cc80003003a006022b800d4408800e54088004c
:101cd8002e02900063026200e30f520003003a00f4
:101ce8006022b800f440880005418800040007001d
:101cf80001003700000000000080fa000000060024
:101d08000000fa00b6408000c740800014002000a0
:101d180005002000840f5300858f5b0007003a0000
:101d2800d6408000e7408000140020000500200015
:101d3800840f5300858f5b001c003200b640800082
:101d4800c74080001400200005002000840f5300c5
:101d5800858f5b0007003a00f6408000074180004d
:101d68001400200005002000840f5300858f5b00bd
:101d78000e003200d6408000e740800014002000aa
:101d880005002000840f5300858f5b000d003a008a
:101d9800f640800007418000140020000500200064
:101da800840f5300858f5b0006003a0005e1a90007
:101db80011e1a90013e1a9000002eb0044408800ea
:101dc80026003700b4408000c5408000e00f520074
:101dd800e08f5a0005003a00d4408000e5408000ba
:101de800e00f5200e08f5a0014003200b440800027
:101df800c5408000e00f5200e08f5a0005003a000d
:101e0800f440800005418000e00f5200e08f5a0046
:101e18000a003200d4408000e5408000e00f520004
:101e2800e08f5a000d003a00f44080000541800020
:101e3800e00f5200e08f5a0008003a009508800031
:101e48000400280004826200e00f520003003a00f8
:101e580020002000cf00070013e1a8000080fa004e
:101e6800000006000800fa003dfc07000042780068
:101e7800e14f52001e003a00f40f200014079800aa
:101e880004712200040f7800848220001442780034
:101e9800e04f520006003a00948220001442780075
:101ea800e04f520002003a00047d2000040f780041
:101eb8009e0278001e029000110009008482d8005a
:101ec80000027800240798000040eb006601070034
:101ed800004278000482fb0034079800be0290009c
:101ee8002e02900004aab900040278007440880009
:101ef8000080fa00000006000400fa00000f7800d5
:101f0800110798000082eb0044158800450107007e
:101f1800d302a900d322a900d702a900d722a90079
:101f2800006c2c00d102200089010700cda2a90075
:101f3800d1a2a8009d000700b8fb070010002000f0
:101f48007bfc0700ffff37003600f800809fbe00cb
:101f5800829fbe00849fbe00869fbe003400f800aa
:101f680000002000a00188000000fa008460a90099
:101f780058fe070000027800e00f520002003a0005
:101f8800fffa07000100370035fb07000080fa0060
:101f98003400f9004f03be004f02be004f01be00df
:101fa8004f00be003600f900004006003600f80079
:101fb800809fbe00829fbe00849fbe00869fbe0099
:101fc8003400f80000002000a00188000000fa009a
:101fd80084c0a9001cfe07006cfd0700bcfd0700bb
:101fe800fcfb070098fd0700f3fd07009dff0700b5
:101ff8000080fa003400f9004f03be004f02be0013
:102008004f01be004f00be003600f9000040060038
:102018003600f800809fbe00829fbe00849fbe00ed
:10202800869fbe003400f80000002000a001880050
:102038000200fa0084e0a90035fe070014c0b300ce
:10204800044f780024832000144278009e4f5200e9
:10205800100032001e40780032e8b70024832000c8
:1020680014427800e14f520003003a0005e1a8004d
:1020780011e1a800080037002483200014427800ea
:10208800e04f520004003a0005e1a90011e1a9005f
:1020980001003700000000000080fa003400f90059
:1020a8004f03be004f02be004f01be004f00be00ee
:1020b8003600f900004006003600f800809fbe0098
:1020c800829fbe00849fbe00869fbe003400f80039
:1020d80000002000a00188000a00fa008760a9001b
:1020e8009603a9009623a900841c80006e02620052
:1020f800ee0f520002003a0096c3a9001d003700f7
:10210800041c80004222de00f57f200005026200e8
:10211800040f78000e82e800040078007f000700b2
:102128003483200014427800e04f52000b003a003c
:102138000e82e800840078001e00780048fe070040
:1021480063fd07007e00070090000700a20007005b
:1021580014c0b3000440780033e8b7000e82e800ea
:10216800840078001e0078008ffe07008ee3a90027
:102178007ee3a9000080fa003400f9004f03be0096
:102188004f02be004f01be004f00be003600f900ee
:10219800004006000200fa00004f78001e40780058
:1021a80032e8b7000080fa00000006000000fa00dc
:1021b80000c0200000f9070000000000841c800017
:1021c8004522de00674262000482fb00e30f5200f2
:1021d800faff3400815b20002000200052f807003d
:1021e800d1ff2f003000200008f907006011b80067
:1021f800016020000040eb00b6f807006011b8004d
:1022080011ff21000040eb00ddf807006011b80065
:1022180001e0200010c0b300aef807006011b8005c
:1022280011ff210010c0b300d5f8070031002000cd
:102238000040eb00eaf80700410020000040eb00f6
:10224800dff807003100200010c0b300e4f80700f1
:102258004100200010c0b300d9f807003100200069
:1022680020c0b300def807004100200020c0b30002
:10227800d3f8070000802a00cff80700000000000c
:10228800851c8000040e200004826200e00f5200ca
:10229800fbff3a000080fa00000006000600fa0082
:1022a800000f7800110798004247980000000000ce
:1022b8004e429000044078001ef807000042780063
:1022c800e04f5200faff32004e4290009e03900009
:1022d800057c20009e826200452bdd009e0278006e
:1022e8004228dd00f50f2000850260000503730019
:1022f800c58f2f00050363008442780084c0b300b3
:1023080087007800825f2000030020000600780024
:1023180028f807000080fa00000006000200fa0012
:10232800000f78001e0278000041eb0081c0b30066
:102338000400780010f807000080fa00000006008a
:102348000000fa000002eb0024088800240880003e
:102358000440a1000450a1002408880004c42900f6
:1023680014088800a404800004c0a10004d0a000c0
:1023780004e0a000a40488008460a9008c60a80080
:1023880005e1a9000080fa00000006000000fa003c
:102398000002eb0084088800840880000440a00044
:1023a8000450a00084088800943a2000640888003b
:1023b800b40480000480a0000490a10004a0a00040
:1023c800b404880084c0a9008cc0a80011e1a90049
:1023d8000080fa00000006000000fa000002eb008e
:1023e80094088800940880000440a0000450a000cd
:1023f800940888000471220074088800b4048000de
:1024080004c0a10004d0a10004e0a000b404880026
:1024180084e0a9008ce0a80013e1a8000080fa007d
:10242800000006000000fa000082eb003416880065
:10243800f41f2c00441588000002eb0004158800e6
:102448000002eb00341588000002eb0054158800e8
:1024580034002100241588000002eb0014158800c0
:102468000080fa00000006000600fa0040479800c5
:102478004e4290000482fb00690242003415880035
:10248800a1e2a8000002eb0014079800a022a8000f
:102498000002eb00040f7800010037001e0fe8006f
:1024a800340620009e027800848f5200fbff34001f
:1024b800a022a9000000000004158000610262004b
:1024c800e00f5200fcff3200041480004422de00ba
:1024d80014079800a1e2a9001e02900004427800a7
:0c24e800044078000080fa0000000600ac
:020000040000fa
:1024f4002a0800000a00000002000000702ffc00ff
:10250400ff50c3000000ff000000000000080000ae
:102514002a0000000200000000000000000000008b
:1025240000000000000000000000100027f8240054
:102534000100900001000000000000000000000005
:102544000000000000000000000000000000000087
:042554000000000083
:020000040000fa
:102558000800fa0020079800310798006022b800a8
:10256800048fbe000400370014002000050020007e
:102578001e0f42005e974a002e029000be02900095
:102588001e03be00840f5300858f5b00f6ff3500e5
:082598000080fa0000000600bb
:020000040000fa
:0200000401f009
:04000000e7bf000056
:020000040000fa
:0200000401f009
:04000400ff7f00007a
:020000040000fa
:0200000401f009
:040008007fff000076
:020000040000fa
:0200000401f009
:04000c00ffff0000f2
:020000040000fa
:0200000401f009
:04001000ffff0000ee
:020000040000fa
:0200000401f009
:04001400ffff0000ea
:020000040000fa
:0200000401f009
:04001800ffff0000e6
:00000001FF
