:020000040000fa
:080000000001040000000000f3
:020000040000fa
:100008009c0100009c0100009c0100009c01000074
:100018009c0100009c0100009c0100009c01000064
:100028009c0100009c0100009c0100009c01000054
:100038009c0100009c0100005c1400008e1400006c
:100048009c0100009c0100009c0100009c01000034
:100058009c0100009c0100009c0100009c01000024
:100068009c0100009c0100009c0100009c01000014
:100078009c0100009c0100002a1400009c01000063
:100088009c0100009c0100009c010000e21400009b
:100098009c0100009c0100009c0100009c010000e4
:1000a8009c0100009c0100009c0100009c010000d4
:1000b8009c0100009c0100009c0100009c010000c4
:1000c8009c0100009c0100009c0100009c010000b4
:1000d8009c0100009c0100009c0100009c010000a4
:1000e8009c0100009c0100009c0100009c01000094
:0800f8009c0100009c010000c6
:020000040000fa
:100108009c0100009c0100009c0100009c01000073
:100118009c0100009c0100009c0100009c01000063
:100128009c0100009c0100009c0100009c01000053
:100138009c0100009c0100005c1400008e1400006b
:100148009c0100009c0100009c0100009c01000033
:100158009c0100009c0100009c0100009c01000023
:100168009c0100009c0100009c0100009c01000013
:100178009c0100009c0100002a1400009c01000062
:100188009c0100009c0100009c010000e21400009a
:100198009c0100009c0100009c0100009c010000e3
:1001a8009c0100009c0100009c0100009c010000d3
:1001b8009c0100009c0100009c0100009c010000c3
:1001c8009c0100009c0100009c0100009c010000b3
:1001d8009c0100009c0100009c0100009c010000a3
:1001e8009c0100009c0100009c0100009c01000093
:0801f8009c0100009c010000c5
:020000040000fa
:100200000f8620000e7f22000e01880000000000f3
:1002100000012000200288000c000700007421006b
:100220000100200011000700000020000000e00095
:10023000020032000000020000000000a0130200d3
:10024000000000000040da000000fe004440a90069
:10025000000020000000e000030032000000200049
:10026000a00188004440a800000006009101880019
:10027000800078000000eb0015003700e2804000ad
:1002800032a0b4009101ba00e280400032a0b40074
:100290009102ba00e280400032a0b4000002eb00fc
:1002a000472bde00f507b200602ce10004003a00a5
:1002b0000059eb008301e900fdff3e000400370018
:1002c0006128e100010032000082eb000400070019
:1002d0001101ba000200e000e8ff3a000000060049
:1002e0003159ba008301e9000c0032002159ba00eb
:1002f0008301e900080032000400e00003003a0036
:10030000e280400032a0b400f5ff370011d9ba00f6
:100310008301e900faff3a008100e800e180400033
:1003200032a0b40000000600580c040000000000d9
:100330004e0d0400000000000040da000000fe0046
:10034000901c8800a11c880000000600e14f5000ae
:1003500006003200e24f500006003200e04f50002d
:1003600009003a00701b800003003700f01a80007b
:1003700001003700701a8000680060000000e9008a
:100380004f00de00000006000040eb000000060009
:100390000002eb008180fb0009003700e04f5100b4
:1003a0000300320065372000e14f510001003200a8
:1003b0006538200065487a000402e8000000e80083
:1003c000810f5200f5ff350000000600401bde00e3
:1003d00007002000e1cf520008003200e2cf5200b7
:1003e0000a003200001b8800161b8800221b8800b0
:1003f0000003eb008483fb0012003700801a8800a2
:10040000961a8800a21a8800f9ff3700001a88009f
:10041000161a8800221a8800f5ff37006035200080
:10042000e1cf52000400320060362000e2cf5200db
:1004300001003a006034200011707b000603e800e0
:100440008100e800870f5300f4ff35006f4262001f
:10045000e1cf52000a003200e2cf52001100320018
:10046000e0cf520018003a006f0262004322dd0024
:1004700075f82f00261b8000868262001700370067
:100480006f0262004322dd0075f82f00a21a80007f
:100490008282620004827200a41a88005e63a8004f
:1004a000000006006f0262004322dd0075f82f0095
:1004b000261a80008682620004827200241a880054
:1004c0004e63a800000006006f0262004322dd00b8
:1004d00075f82f00221b8000828262000482720065
:1004e000241b88006e63a80000000600889fbe00e1
:1004f000401cde00090020000003fb00cfb3de003b
:10050000e50f5300e08f5b001e003e000660010017
:1005100005003700070037000a0037000d003700dc
:1005200010003700130037000118880018188800e1
:100530001600370041188800581888006218880093
:10054000130037008118880098188800a2188800c6
:100550000f003700c1188800d8188800e2188800fa
:100560000b0037000119880018198800221988002b
:10057000070037004119880058198800621988005f
:100580000300370001188800181888002218880016
:100590004f04be0000000600401ade0005002000e7
:1005a000e04f500006003200e14f500004003a00d6
:1005b000c1198800d4198800e219880000000600db
:1005c0008119880094198800a2198800000006008b
:1005d000801c880000000600e04f5000040032003c
:1005e000e14f500002003a00f11b880000000600b5
:1005f000711c880000000600e14f5000030032002b
:10060000e24f500005003a0002003700f11a88005e
:1006100000000600711a880000000600711b8800a7
:10062000000006009623ef008760a900c01c880028
:10063000e7826000cc2add00f4ff28000605800078
:10064000060262000502720004058800e88060006e
:10065000c308de00e1806000cb08dd00f47f2f00de
:1006600075048000050262000102720074048800b3
:1006700000000600889fbe008a9fbe008c1f780085
:10068000ba000700c100330003866c006450e1002b
:100690002e0032006420e100330032006150e1009e
:1006a0002f0032006120e1003100320085855500c5
:1006b000eb07b00009002000080420000500370007
:1006c0000804440089844c000a00310006034300fa
:1006d00087834b000001530081815b00f8ff3300ea
:1006e0000203be000800a0000804440089844c00f6
:1006f000f6ff3900c639dd008301730001003200c6
:10070000130020008904d1000884d3000998a300b5
:10071000050032000800a7000300a0008904d100f2
:100720000884d3008b05e8008904d1000884d30035
:100730000001eb000281d2005100070001f0a1008e
:100740000cf0a70001f0a000990037006420e10040
:100750009b0032000801be000200be00f7ff370018
:100760006120e100960032006000b800f3ff37001e
:100770000000200001f82700f0ff37000001be0054
:10078000650007000470a70003f0a1006509b1002f
:10079000160032000d0035006828e1000600350023
:1007a000f0ff2f00f1ff27000300e00013003b00e3
:1007b0000100280000000500000040008180480082
:1007c0008502e900fcff3a0008003700f88f42007c
:1007d00002003c008000eb00000005008100d10019
:1007e0000080d3008502e800fcff3a000300e0002f
:1007f00002003b0060001000e080180000000600ce
:100800000001be00440007000470a70003f0a1002f
:1008100003f8a30013003a006509b100100032008c
:10082000090035006928e1000200350001002800b8
:100830000000050000004000818048008502e900ba
:10084000fcff3a0000000600f88f4200050035006a
:100850008100d1000080d3008502e800fcff3a004f
:10086000000006008000eb00000005004f89de005c
:1008700082017800890037006011b80097003700c6
:1008800081002000618055000b003d000b0020001e
:1008900061fe2f000100e1001d0034008281710023
:1008a000610164008904d1000884d3000000e800dd
:1008b000faff3a007100200061006400030070003c
:1008c000020060000900320061044400e0844c0032
:1008d0000988a500050032008b05e8006808e100e2
:1008e00002003a008904d1000884d300f20f2000ee
:1008f0000258e10005003d00c75ddd00f907b200c8
:100900008980750008007800000006000bf82700b9
:100910008b00780000000500c70ade00f107b20076
:10092000f50fb20008003200e1cf420002003200b1
:100930000170a00024000500810f7000010032004a
:100940000408050044000500810f700002003a0011
:10095000140005008502e9000000400081c0480045
:10096000fcff3b000170a000240005000004be0055
:10097000e9ff07000003be000405be000200be0040
:10098000e5ff0700844f7500000006000200be006e
:100990006450e100050036006420e10002003600ea
:1009a0000968a30001003a000800be000160a00031
:1009b0004f0678004f05be004f04be000000060041
:1009c000f0ff2f00f1ff2700f9ff3700889fbe00de
:1009d0008a9fbe008c1f7800e4ff0700ebff330006
:1009e00003866c006450e100240032006420e100c2
:1009f000270032006150e100220032006120e10056
:100a0000210032008b854200eb07b1000134b800b1
:100a1000003ab8000804420089844a00013ab8004c
:100a20000030b8008880400009014a00040033000b
:100a30000000400081804800020149008b05e90068
:100a4000c909dd008301700001003200130020009d
:100a5000c814de004814dd004709de001200b200b1
:100a6000c808de000884700085ff070001f0a100bf
:100a70000cf0a70001f0a000cdff37006120e100dd
:100a8000cfff32000801be000200be00f7ff3700b2
:100a90006150e100fcff3a00c9ff3700881f780071
:100aa000030478000300e00007003d006000100030
:100ab000e080180060011900e081190002003b008d
:100ac00001f02d00030037000400070008f0a70024
:100ad00001f0a0004f04780000000600889fbe00cf
:100ae0008a9fbe00008270000402710004827100bf
:100af000260032000004be000200be006011b800f3
:100b00006b092000950220000182cf000a00390005
:100b10000541b1000082cf00070039000541b10056
:100b20000982cf00040039000541b1000882cf00de
:100b3000010039000541b1000542520012003200a7
:100b40000a003b0082817100610164008100d100d4
:100b50000080d3008984d3000884d3008b05e8008b
:100b60000442e800f7ff3a00070037000804440099
:100b700089844c0000004800818048008b05e90012
:100b80000442e900f9ff3a003dff07004f05be00af
:080b90004f04be000000060046
:020000040000fa
:100b98000400fa00f400200005002000048fbe00c5
:100ba800c602a900c622a900c642a900c662a900b9
:100bb800c682a900c6a2a900ca02a900ca22a90021
:100bc800ca42a900ca62a900ca82a900caa2a90089
:100bd8001e00be00cf080700ca02a900ca22a8004a
:100be800ca42a900ca62a800ca82a900caa2a8006b
:100bf8001e00be00c7080700ca02a800ca22a80033
:100c0800ca42a800ca62a800ca82a800caa2a8004c
:100c18001e00be00bf080700ca02a800ca22a90019
:100c2800ca42a800ca62a900ca82a800caa2a9002a
:100c38001e00be00b7080700ca02a900ca22a90000
:100c4800ca42a900ca62a900ca82a900caa2a90008
:100c5800044080001540800061025200e0825a0082
:100c680004408800154088000080fa000000060053
:100c78000400fa00f400200005002000048fbe00e4
:100c8800c602a900c622a900c642a900c662a900d8
:100c9800c682a900c6a2a900ca02a800ca22a90041
:100ca800ca42a800ca62a900ca82a800caa2a900aa
:100cb8001e00be0097080700ca02a800ca22a800a2
:100cc800ca42a800ca62a800ca82a800caa2a8008c
:100cd8001e00be008f080700ca02a900ca22a80089
:100ce800ca42a900ca62a800ca82a900caa2a8006a
:100cf8001e00be0087080700ca02a900ca22a90070
:100d0800ca42a900ca62a900ca82a900caa2a90047
:100d18001e00be007f080700ca02a800ca22a90058
:100d2800ca42a800ca62a900ca82a800caa2a90029
:100d3800044080001540800061024200e0824a00c1
:100d480004408800154088000080fa000000060072
:100d58000400fa000640800017408000244080000c
:100d680035408000041f530005975b001e00be003d
:100d7800bcfe07000002be000200200003f02300b2
:100d88000400be000fff07000002be000400be0002
:100d980078fe07000002be00048fbe0004408000f9
:100da8001540800024408800354088001e00be00a1
:100db800acfe07000002be00a2702d0033c2230063
:100dc8000400be0029fe07000002be000400be00a9
:100dd80068fe07000002be000402780004007800e4
:100de8000080fa00000006000000fa0004408000bd
:100df800154080000400be009afe07000002be00f5
:100e08000200200003f023000400be00edfe0700ee
:100e18000002be000400be0056fe07000002be002d
:100e28000400be000080fa00000006000800fa0076
:100e38003442800045428000048fbe000400200038
:100e480005f0230024079800350798001e00be000f
:100e580084fe07000002be002e019000be01900033
:100e68000400be0001fe07000002be000400be0030
:100e780040fe07000002be000440880015408800bc
:100e88000080fa00000006000200fa000042eb00b1
:100e9800044f7800c7c2a900d342a900d202a80013
:100ea800cbc2a900d742a800a00020000100200062
:100eb80018080700cbc2a900d742a900a00020004b
:100ec8000100200013080700a416800061026200d8
:100ed800e00f520003003a0014c0b300044f78003a
:100ee800020037000042eb00044f78001e427800f1
:100ef800044078000080fa00000006000200fa00b2
:100f08000042eb00044f7800c7c2a900d342a900f1
:100f1800d222a800cbc2a900d742a800a000200076
:100f280001002000fb070700cbc2a900d742a90097
:100f3800a000200001002000f6070700a41680008a
:100f480062026200e00f520003003a0014c0b300ce
:100f5800044f7800020037000042eb00044f78008d
:100f68001e427800044078000080fa000000060065
:100f78000000fa00c7c2a900d342a900d242a800c3
:100f8800cbc2a900d742a800a00020000100200081
:100f9800e0070700cbc2a900d742a900a0002000a3
:100fa80001002000db070700a4168000640262002d
:100fb800e00f520004003a0014c0b3000440780067
:100fc80018e8b700030037000042eb00044078003f
:100fd80018e8b700848120001442780004407800a3
:100fe8000080fa00000006000000fa00e0ff070099
:100ff80000427800e14f520032003a00c7c2a9000f
:10100800d342a900d262a800d282a800cbc2a9000c
:10101800d742a800a000200001002000bd0707005b
:10102800cbc2a900d742a900a000200001002000df
:10103800b8070700a416800068026200e00f52009b
:1010480009003a00a416800070026200e00f520006
:10105800050032000002eb00644088000002eb004b
:101068004441880017003700a41680006802620017
:10107800e00f520009003200a416800070026200de
:10108800e00f520005003a00140020006440880078
:101098000002eb00444188000a003700a4168000d3
:1010a80068026200e00f520006003200a4168000b9
:1010b80070026200e00f52000200320014002000ab
:1010c800444188000080fa00000006000000fa0091
:1010d800c7c2a900d342a900d262a800d282a80040
:1010e800cbc2a900d742a800a00020000100200020
:1010f80088070700cbc2a900d742a900a00020009a
:101108000100200083070700a4168000680262001f
:10111800e00f520006003200a41680007002620040
:10112800e00f5200020032000042eb0001003700dd
:1011380014c0b300044078000080fa0000000600e4
:101148000200fa000042eb00044f7800c7c2a90071
:10115800d342a900d2a2a800cbc2a900d742a800b6
:10116800a0002000010020006a070700cbc2a900e8
:10117800d742a900a0002000010020006507070051
:10118800a51680000402200004826200e00f5200cd
:1011980003003a0014c0b300044f7800020037007f
:1011a8000042eb00044f78001e42780004407800ab
:1011b8000080fa00000006000000fa00c7c2a9007b
:1011c800d342a900d222a800cbc2a900d742a800c6
:1011d800a0002000010020004e070700cbc2a90094
:1011e800d742a900a00020000100200049070700fd
:1011f800a416800062026200e00f520004003a0068
:1012080014c0b3000440780040e8b700030037007a
:101218000042eb000440780040e8b7000080fa0084
:10122800000006000400fa00100798001e02900053
:101238000482ea008582ea00140798009516800067
:1012480004f02f000482620094168800d302a900db
:10125800d322a900d342a900d362a900c7c2a9001a
:10126800d742a900d762a900cbc2a8001e029000ed
:10127800044f78001e4278006142620061426200b9
:10128800614262000482fb0061026200b6168000bf
:10129800e5ff2f008502630004827200b4168800ff
:1012a8001e02fb000482d100044f78001e42780021
:1012b8006142620061426200614262000482fb0096
:1012c8006102620004024200b6168000d5ff2f00ba
:1012d8008502630004827200b41688001e02fb00b7
:1012e8000482d100044f78001e42780061426200f7
:1012f80061426200614262000482fb006102620096
:101308004222dd00b6168000b5ff2f00850263007b
:1013180004827200b41688001e02fb000482d10009
:10132800044f78001e427800614262006142620008
:10133800614262000482fb00610262004322dd0018
:10134800b616800075ff2f008502630004827200c4
:10135800b41688001e02fb000482d100044f7800f6
:101368001e4278006142620061426200614262008e
:101378000482fb00610262004422dd00b616800090
:10138800f5fe2f008502630004827200b4168800ff
:101398001e02fb000482d100044f78001e42780030
:1013a8006142620061426200614262000482fb00a5
:1013b800610262004522dd00b6168000f5fd2f00af
:1013c8008502630004827200b41688001e02fb00c6
:1013d8000482d100044f78001e4278006142620006
:1013e80061426200614262000482fb0061026200a5
:1013f8004622dd00b6168000f5fb2f00850263004b
:1014080004827200b41688001e02fb000482d10018
:10141800044f78001e427800614262006142620017
:10142800614262000482fb00610262004722dd0023
:10143800b6168000f5f72f0085026300048272005b
:10144800b41688001e02fb000482d100044f780005
:10145800d702a8004006200001002000ad060700c2
:10146800d702a9004006200001002000a9060700b5
:101478001e0290004822de00044f78001e427800c9
:101488006142620061426200614262000482fb00c4
:1014980061026200b6168000e5ff2f008502630036
:1014a80004827200b41688001e02fb000482d10078
:1014b800044f78001e427800614262006142620077
:1014c800614262000482fb00610262000402420081
:1014d800b6168000d5ff2f008502630004827200d3
:1014e800b41688001e02fb000482d100044f780065
:1014f8001e427800614262006142620061426200fd
:101508000482fb00610262004222dd00b616800000
:10151800b5ff2f008502630004827200b4168800ac
:101528001e02fb000482d100044f78001e4278009e
:101538006142620061426200614262000482fb0013
:10154800610262004322dd00b616800075ff2f009d
:101558008502630004827200b41688001e02fb0034
:101568000482d100044f78001e4278006142620074
:1015780061426200614262000482fb006102620013
:101588004422dd00b6168000f5fe2f0085026300b8
:1015980004827200b41688001e02fb000482d10087
:1015a800044f78001e427800614262006142620086
:1015b800614262000482fb00610262004522dd0094
:1015c800b6168000f5fd2f008502630004827200c4
:1015d800b41688001e02fb000482d100044f780074
:1015e8001e4278006142620061426200614262000c
:1015f8000482fb00610262004622dd00b61680000c
:10160800f5fb2f008502630004827200b41688007f
:101618001e02fb000482d100044f78001e427800ad
:101628006142620061426200614262000482fb0022
:10163800610262004722dd00b6168000f5f72f0030
:101648008502630004827200b41688001e02fb0043
:101658000482d100044f7800d722a8004006200059
:10166800010020002b060700d722a9004006200011
:1016780001002000270607000080fa00000006008d
:101688001200fa0054418000e00f5200830032003b
:101698008481200014427800e04f520046003a004e
:1016a800d1fd07000002be00e00f5200e08f5a0093
:1016b80002003d0060021200e0821a001407980040
:1016c8002507980014c0b300044f780064408000d8
:1016d800e00f520007003a00b4428000c542800083
:1016e8001e039000ae039000840f5300858f5b00ab
:1016f8000a003c0064408000e10f520009003a00f3
:10170800b4428000c54280001e039000ae039000e2
:10171800840f5300858f5b0002003d000042eb0000
:10172800044f78001e427800e04f5200100032004b
:101738000483200014427800e04f52000700320072
:1017480094418000a541800061024200e0824a0085
:1017580094418800a54188001300370084c5200003
:101768001e009000ae009000040001000e0037003b
:1017780094418000a5418000e00f5200e08f5a009c
:1017880003003c00e4d420000400010006003700f8
:1017980094418000a541800061025200e0825a0015
:1017a80094418800a541880045408000544080004d
:1017b80004824200444088000400200005f0230011
:1017c80034079800450798004440800004f0a700bb
:1017d8000402ea00cfa2de000400be0021fc0700dc
:1017e8000002be003e019000ce0190000400be0041
:1017f8009efb07000002be0054079800650798008a
:101808005e019000ee0190000000200001f8230026
:1018180096fb07000002be00540798006507980071
:10182800324c2600a3d223005e009000ee00900008
:101838008efb07000002be000240220043972400ee
:101848000400be005ffc07000002be000400be00ea
:10185800e9fb07000002be0074079800050f980016
:101868008ec0a9000002eb00b40888000002eb005b
:10187800a40888007e0290008e0a9000402ade00ac
:101888000500200004027800e40888007e02900029
:10189800d40888008ec0a8000100370000000000ae
:1018a8000080fa00000006000a00fa0030079800dd
:1018b8004107980064408000e00f520003003a009e
:1018c8003442800045428000020037001442800004
:1018d80025428000048fbe001e02be00e00f5200a9
:1018e800e08f5a0002003d0060021200e0821a00f8
:1018f8000403be0084c72e00f5ff2f00041f430019
:1019080005974b004440800004f0a7000402ea0059
:10191800240798002e0290006123b900f442800049
:101928006120b900d4428000e542800000024200f4
:1019380081824a00840f5300858f5b002b003d0095
:10194800544080008402780005f0a7008502ea0070
:1019580074428000848f52001d003d003e029000ba
:10196800ce029000be0f5200ae8f5a000d00340018
:1019780064428000ae029000848f520043003d0014
:1019880064408000e00f520003003200644280008f
:101998000402ea00010037006442800044408800e5
:1019a8003a00370064408000e00f52000300320024
:1019b800844280000402ea0001003700844280006b
:1019c8005540800005024200544088002f0037002f
:1019d800b4418000c541800061024200e0824a00b3
:1019e800b4418800c541880028003700b441800010
:1019f800c5418000e00f5200e08f5a001d003a00f8
:101a080054408000e00f52000f0035005440800021
:101a1800e00f52000c003c000002eb00544088002c
:101a280014c0b3000440780030e8b7006022b80062
:101a380094418800a54188006022b800b44188001c
:101a4800c54188001100370055408000644080007f
:101a5800e00f520003003200844280000402ea00d2
:101a680001003700844280000482520054408800fc
:101a780006003700b4418000c54180006102520071
:101a8800e0825a00b4418800c54188000080fa000d
:101a9800000006000000fa004440800004f0a7009f
:101aa8000402ea006123b900f44280006120b90011
:101ab800d4428000e54280000002420081824a0050
:101ac800840f5300858f5b0020003d00b4418000e7
:101ad800c5418000e00f5200e08f5a0014003a0020
:101ae80054408000e00f520006003a000002eb006c
:101af8005440880014c0b3000440780031e8b700af
:101b08002a00370064408000e00f520003003200d2
:101b1800844280000402ea00010037008442800009
:101b28005540800005024200544088001f003700dd
:101b3800b4418000c541800061025200e0825a0031
:101b4800b4418800c541880018003700544080001f
:101b58008402780005f0a7008502ea00744280003c
:101b6800848f520007003500b4418000c5418000d1
:101b780061024200e0824a00b4418800c541880001
:101b88000a0037005540800064408000e00f520092
:101b980003003200844280000402ea00010037009a
:101ba8008442800004825200544088000080fa0079
:101bb800000006000400fa008bfc07000002be00cb
:101bc800048fbe0044418000e10f52000d003a002e
:101bd800e7fc070000427800e14f520009003a0094
:101be8001fe1a9000002eb00844088000002eb001e
:101bf800544188000002eb00444088000002eb00da
:101c08005440880064408000e00f520006003a000b
:101c180014428000254280001e03be00840f53003a
:101c2800858f5b000900340064408000e10f52009a
:101c380014003a0034428000454280001e03be0072
:101c4800840f5300858f5b000e0035001fe1a9004b
:101c58000002eb00844088000002eb00444088004a
:101c68000002eb00544088001400200074418800f2
:101c78000002eb005441880000d42000310020000d
:101c8800a404070011fd070000427800e04f52004d
:101c98000d003a00b6fc070000427800e04f520001
:101ca80009003a001fe1a9000002eb008440880007
:101cb8000002eb00544188000002eb004440880019
:101cc8000002eb00544088000080fa000000060083
:101cd8001000fa0004352c0005002000048fbe0017
:101ce80004f72200c5ff2f00240798003507980045
:101cf8004406200005002000440798005507980076
:101d080039fc07000002be006407980075079800b8
:101d18000484200014427800e04f520002003a0088
:101d280004052000f44188006e039000fe03900033
:101d38002e029000be029000840f5300858f5b0036
:101d48002e003c002e039000be0390004e0290002f
:101d5800de0290000403530085835b006e0290004e
:101d6800fe029000840f5300858f5b0023003c0027
:101d7800f4418000f30f520006003e00a00020004e
:101d880028fd0700f44180000402e800f4418800bf
:101d980013003700f5418000b4032000848f5200ff
:101da80006003e00a00220001efd0700f44180004e
:101db8000402e800f441880009003700f54180007a
:101dc800f4042000848f520005003e00a00020008b
:101dd80014fd0700f44180000402e800f441880083
:101de800f541800004052000848f520038003a0035
:101df800200120000bfd0700350037006e0290001f
:101e0800fe029000be0f5200ae8f5a002c00350023
:101e18004e029000de0290003e034200ae834a006c
:101e28006e029000fe029000840f5300858f5b00c5
:101e380023003500f4418000f30f520006003e00f5
:101e480090002000f7fc0700f44180000402e8003d
:101e5800f441880013003700f5418000b4032000e6
:101e6800848f520006003e0090022000edfc07001f
:101e7800f44180000402e800f441880009003700ba
:101e8800f5418000f4042000848f520005003e00d4
:101e980090002000e3fc0700f44180000402e80001
:101ea800f4418800f541800004052000848f520029
:101eb80007003a0010012000dafc07000400370090
:101ec80030012000d7fc07000002eb00f441880035
:101ed8000080fa00000006000400fa0024fc070055
:101ee80000427800e04f52001d003a00befb070098
:101ef8000002be00048fbe0064408000e00f520064
:101f080009003a0016428000274280009440800071
:101f1800a54080000602420087824a00be0f520098
:101f2800ae8f5a000c003d0064408000e10f520063
:101f38000b003a00364280004742800094408000ff
:101f4800a54080000402530085825b00be0f52004a
:101f5800ae8f5a0002003c0004192000844088001b
:101f68000080fa00000006000000fa00f508800072
:101f78000400280004826200e00f52002d003a009d
:101f8800fbfb070000427800e14f52000a003a00cc
:101f980044418000e00f520007003a00006a280020
:101fa80011002000db0307001fe1a8001400200037
:101fb8005441880020003700edfb070000427800fc
:101fc800e04f52001c003a0040fc07000042780035
:101fd800e14f520018003a00047122008440880042
:101fe80074418000e10f520005003a00644080000f
:101ff80061021200644088000002eb00744188000e
:10200800006a280011002000c20307001fe1a80091
:1020180014002000544188000042eb00044078007e
:1020280030e8b7000042eb000440780031e8b70020
:1020380001003700000000000080fa0000000600e0
:102048000000fa0064408000040078000080fa0074
:10205800000006000000fa004441800004007800f7
:102068000080fa00000006000000fa0054418000d9
:10207800040078000080fa00000006000800fa005a
:1020880004f72200c5ff2f00048fbe0004352c0082
:10209800050020002407980035079800c482200016
:1020a80014427800e04f520016003a00d482200013
:1020b80014427800e04f520012003a00048f2d00bd
:1020c800f5ff2f003e034200ae834a001442800011
:1020d80025428000840f5300858f5b0009003d0076
:1020e8001642800027428000048f2d00f5ff2f0044
:1020f8000602420087824a0014428800254288006e
:102108000b003700c482200014427800e04f5200d0
:1021180004003a00d482200014427800e04f5200b4
:10212800030032001e02be001442880025428800c7
:10213800c482200014427800e04f520018003a0090
:10214800d482200014427800e04f520014003a0074
:102158002e039000be0390000471220005002000a9
:102168000603420087834a003442800045428000cb
:10217800840f5300858f5b000900340036428000cd
:102188004742800004712200050020000602420038
:1021980087824a0034428800454288000c00370094
:1021a800c482200014427800e04f520004003a0034
:1021b800d482200014427800e04f5200040032001c
:1021c8002e029000be0290003442880045428800ea
:1021d8000080fa00000006000e00fa005007980080
:1021e80061079800de029000047820008482620073
:1021f80004182000848f520046003a006022b8007c
:10220800048fbe000002eb00240798006e029000c5
:102218006302420014427800044378006e02900082
:102228006402420014427800844278006e029000f2
:1022380065024200144278008043eb00674798002b
:1022480076479800054f9800144f9800660247009b
:10225800240798002e0290001402be00e00f5200de
:10226800e08f5a0002003d00f40fb0000580b00076
:10227800482bdd004822de0004027300c8aade00f5
:102288002e039000048bbe005e0290006302620081
:10229800e10f520003003a002e029000341f78002c
:1022a800241778005e02900063026200e20f520079
:1022b80003003a002e029000341f7800241778009b
:1022c8005e02900063026200e30f520003003a00ce
:1022d8002e029000341f7800241778001e00be00dc
:1022e80060f907000002be000200200003f023008e
:1022f8000400be00ddf807000002be000400be00b6
:102308001cf907000002be00044088001540880040
:1023180001003700000000000080fa0000000600fd
:102328000800fa002007980031079800ae029000d4
:10233800047820008482620004382000848f5200d0
:102348004a003a003e0290001442780004cfea00a6
:102358003e0290006402420014427800144798003c
:102368001e40780068426000044078002ce8b700fe
:102378009e42780070c26200044078002de8b700e1
:102388001e4290008402fb000404200004826200c4
:10239800140798001e029000e00f52001900340044
:1023a8002e02900063026200e10f520004003a001e
:1023b8001400200005002000d4408800e540880073
:1023c8002e02900063026200e20f520004003a00fd
:1023d8001400200005002000f44088000541880012
:1023e8002e02900063026200e30f52001d003a00c3
:1023f80014002000050020001441880025418800b1
:10240800180037001e029000e00f520015003a0035
:102418002e02900063026200e10f520003003a00ae
:102428006022b800d4408800e54088002e02900061
:1024380063026200e20f520003003a006022b80013
:10244800f4408800054188002e0290006302620073
:10245800e30f520003003a006022b80014418800dc
:102468002541880004000700010037000000000033
:102478000080fa00000006000000fa00d640800044
:10248800e74080001400200005002000840f53005e
:10249800858f5b0007003a00f64080000741800006
:1024a8001400200005002000840f5300858f5b0076
:1024b8001c003200d6408000e74080001400200055
:1024c80005002000840f5300858f5b0007003a0049
:1024d80016418000274180001400200005002000dc
:1024e800840f5300858f5b000e003200f640800099
:1024f800074180001400200005002000840f5300cd
:10250800858f5b000d003a0016418000274180004e
:102518001400200005002000840f5300858f5b0005
:1025280006003a001fe1a90011e1a90013e1a90082
:102538000002eb004440880028003700d4408000a7
:10254800e5408000e00f5200e08f5a0005003a0095
:10255800f440800005418000e00f5200e08f5a00ef
:1025680014003200d4408000e5408000e00f5200a3
:10257800e08f5a0005003a00144180002541800090
:10258800e00f5200e08f5a000a003200f440800049
:1025980005418000e00f5200e08f5a000f003a001a
:1025a8001441800025418000e00f5200e08f5a005e
:1025b8000a003a009508800004002800048262009e
:1025c800e00f520005003a003001200015fb07001b
:1025d800200020003e01070013e1a8000080fa0057
:1025e800000006000e00fa00889fbe0060fa07008f
:1025f80000427800e14f520039003a00f40f200001
:102608001407980054428000040f7800c482200008
:1026180014427800e04f520006003a00d4822000ad
:1026280014427800e04f520002003a00047d200076
:10263800040f78001e027800050020000400be0088
:102648008bf807000004be001e0290000500200061
:102658000400be0086f807000002be000401be00a8
:102668000800be0001f807000002be002407980019
:10267800350798000040eb00de01070000427800b3
:102688000482fb00440798004e02900005002000d9
:102698000400be0076f807000002be002e0190007c
:1026a800be0190000400be00c6f807000002be008c
:1026b8000400be002ff807000002be00540798006f
:1026c80044408000de0290000482520064079800b3
:1026d800454080006e029000048242004440880019
:1026e8004f04be000080fa00000006000400fa0053
:1026f8001ffa070000427800e04f52000c003a0031
:10270800b9f907000002be00048fbe001442800021
:1027180025428000843eb0000580b000be0f520004
:10272800ae8f5a0002003500140020006440880073
:102738000080fa00000006000400fa00000f78008c
:10274800110798000082eb004415880098010700e3
:10275800d302a900d322a900d702a900d722a90031
:10276800006c2c00d1022000ea010700cda2a900cc
:10277800d1a2a8001442800025428000e00f520038
:10278800e08f5a0002003d0060021200e0821a0049
:102798000403be003442800045428000e00f52002e
:1027a800e08f5a0002003d0060021200e0821a0029
:1027b8000602420087824a004f2bde0007002000f5
:1027c8000602420087824a008582d1000482d30033
:1027d8000403be003442800045428000e00f5200ee
:1027e800e08f5a0002003d0060021200e0821a00e9
:1027f8000402530085825b00b4428800c542880009
:102808005542800024002000110009008402d800ed
:1028180000027800cfa2de00d4428800e54288009a
:102828006542800024002000110009008402d800bd
:1028380000027800f4428800ab0007007bf907002b
:102848001000200077fa0700ffff37003600f80075
:10285800809fbe00829fbe00849fbe00869fbe00f0
:102868003400f80000002000a00188000000fa00f1
:1028780086c0a900f2fd070000027800e00f5200b0
:1028880002003a00c2f8070001003700f8f8070014
:102898000080fa003400f9004f03be004f02be006a
:1028a8004f01be004f00be003600f9000040060090
:1028b8003600f800809fbe00829fbe00849fbe0045
:1028c800869fbe003400f80000002000a0018800a8
:1028d8000000fa0084c0a90037fa0700c2f907000f
:1028e800a1fd070066fb0700f9fc0700b1fc070023
:1028f8003cff07000080fa003400f9004f03be00d7
:102908004f02be004f01be004f00be003600f90066
:10291800004006003600f800809fbe00829fbe007f
:10292800849fbe00869fbe003400f800000020008f
:10293800a00188000200fa0084e0a900cffd07008a
:1029480014c0b300044f7800248520001442780096
:102958009e4f5200100032001e40780052e8b70027
:102968002485200014427800e14f520003003a0009
:102978001fe1a90011e1a800080037002485200004
:1029880014427800e04f520004003a001fe1a90009
:1029980011e1a90001003700000000000080fa00e2
:1029a8003400f9004f03be004f02be004f01be00c5
:1029b8004f00be003600f900004006003600f8005f
:1029c800809fbe00829fbe00849fbe00869fbe007f
:1029d8003400f80000002000a00188000a00fa0076
:1029e8008760a9009603a9009623a900841c80008b
:1029f8006e026200ee0f520002003a0096c3a90070
:102a08002b003700041c80004222de00f57f2000e6
:102a180005026200040f78000e82e80004007800c6
:102a28008d0007003485200014427800e04f5200e2
:102a38000c003a004485200014427800ea4f520006
:102a480008003a00a2fc070028ff0700c40007009e
:102a58009d000700af00070014c0b30004407800d1
:102a680053e8b7004485200014427800e94f52002b
:102a780009003c000e82e800840078001e007800ff
:102a8800d5fd070044852000144278000442e80080
:102a98000440780054e8b7000e82e800840078000b
:102aa8001e0078001efe07008ee3a9007ee3a90041
:102ab8000080fa003400f9004f03be004f02be0048
:102ac8004f01be004f00be003600f900004006006e
:102ad8000200fa00004f78001e40780052e8b70064
:102ae8000080fa00000006000000fa0000c0200084
:102af800b5f6070000000000841c80004522de00b7
:102b0800674262000482fb00e30f5200faff3400c0
:102b1800815b20002000200007f60700d1ff2f006e
:102b280030002000bdf607006011b80001602000e9
:102b38000040eb006bf607006011b80011ff2100a0
:102b48000040eb0092f607006011b80001e0200099
:102b580010c0b30063f607006011b80011ff210030
:102b680010c0b3008af60700310020000040eb00d7
:102b78009ff60700410020000040eb0094f6070094
:102b88003100200010c0b30099f607004100200072
:102b980010c0b3008ef607003100200020c0b3003b
:102ba80093f607004100200020c0b30088f6070014
:102bb80000802a0084f6070000000000851c8000c1
:102bc800040e200004826200e00f5200fbff3a006e
:102bd8000080fa00000006000600fa00000f7800e6
:102be8001107980042479800000000004e429000ec
:102bf80004407800d3f5070000427800e04f520007
:102c0800faff32004e4290009e039000057c20009f
:102c18009e826200452bdd009e0278004228dd007e
:102c2800f50f20008502600005037300c58f2f0093
:102c3800050363008442780084c0b30087007800ed
:102c4800825f20000300200006007800ddf5070001
:102c58000080fa00000006000200fa00000f780069
:102c68001e0278000041eb0081c0b3000400780028
:102c7800c5f507000080fa00000006000000fa0011
:102c88000002eb0024088800240880000440a1000a
:102c98000450a1002408880004a62e001408880007
:102ca800a404800004c0a10004d0a00004e0a00097
:102cb800a40488008460a9008c60a80005e1a9002c
:102cc8000080fa00000006000000fa000002eb0095
:102cd80084088800840880000440a0000450a000f4
:102ce80084088800e44a220064088800b40480004c
:102cf8000480a0000490a10004a0a000b4048800ef
:102d080084c0a9008cc0a80011e1a9000080fa00c5
:102d1800000006000000fa000002eb00940888009a
:102d2800940880000440a0000450a0009408880083
:102d38000471220074088800b404800004c0a10053
:102d480004d0a10004e0a000b404880084e0a90035
:102d58008ce0a80013e1a8000080fa00000006003b
:102d68000000fa000002eb00040988000002eb00f2
:102d7800f40888001e61a800f40880000440a1003f
:102d88000450a100f4088800f40480000480a10025
:102d98000490a00004a0a000f404880086c0a90044
:102da8008ec0a8001fe1a9000080fa0000000600fc
:102db8000000fa000082eb0034168800f41f2c0093
:102dc800441588000002eb00041588000002eb009f
:102dd800341588000002eb005415880034002100e7
:102de800241588000002eb00141588000080fa0002
:102df800000006000600fa00404798004e42900086
:102e08000482fb006902420034158800a1e2a80090
:102e18000002eb0014079800a022a8000002eb00b3
:102e2800040f7800010037001e0fe8003406200068
:102e38009e027800848f5200fbff3400a022a90074
:102e4800000000000415800061026200e00f5200db
:102e5800fcff3200041480004422de0014079800ae
:102e6800a1e2a9001e029000044278000440780004
:082e78000080fa0000000600d2
:020000040000fa
:102e8000420800001400000002000000702ffc0047
:102e9000ff50c300000010002784030064000500f9
:102ea00000ff000000000000560800000a000000bb
:102eb00000000000000800004200000002000000c6
:102ec0000000000000000000000000000000000002
:102ed0000000000000102700f8240100009001000d
:102ee00000000000000000000000000000000000e2
:102ef00000000000000000000000000000000000d2
:102f000000000000000000000000000000000000c1
:0c2f1000000000000000000000000000b5
:020000040000fa
:102f1c000800fa0020079800310798006022b800da
:102f2c00048fbe00040037001400200005002000b0
:102f3c001e0f42005e974a002e029000be029000c7
:102f4c001e03be00840f5300858f5b00f6ff350017
:082f5c000080fa0000000600ed
:020000040000fa
:0200000401f009
:04000000e7bf000056
:020000040000fa
:0200000401f009
:04000400ff7f00007a
:020000040000fa
:0200000401f009
:040008007fff000076
:020000040000fa
:0200000401f009
:04000c00ffff0000f2
:020000040000fa
:0200000401f009
:04001000ffff0000ee
:020000040000fa
:0200000401f009
:04001400ffff0000ea
:020000040000fa
:0200000401f009
:04001800ffff0000e6
:00000001FF
