:020000040000fa
:080000000001040000000000f3
:020000040000fa
:100008009401000094010000940100009401000094
:100018009401000094010000940100009401000084
:100028009401000094010000940100006a0c000093
:1000380094010000940100009c0c0000ca0c000010
:100048009401000094010000940100009401000054
:100058009401000094010000940100009401000044
:100068009401000094010000940100009401000034
:100078009401000094010000940100009401000024
:10008800940100009401000094010000340d000068
:100098009401000094010000940100009401000004
:1000a80094010000940100009401000094010000f4
:1000b80094010000940100009401000094010000e4
:1000c80094010000940100009401000094010000d4
:1000d80094010000940100009401000094010000c4
:1000e80094010000940100009401000094010000b4
:0800f8009401000094010000d6
:020000040000fa
:100108009401000094010000940100009401000093
:100118009401000094010000940100009401000083
:100128009401000094010000940100006a0c000092
:1001380094010000940100009c0c0000ca0c00000f
:100148009401000094010000940100009401000053
:100158009401000094010000940100009401000043
:100168009401000094010000940100009401000033
:100178009401000094010000940100009401000023
:10018800940100009401000094010000340d000067
:100198009401000094010000940100009401000003
:1001a80094010000940100009401000094010000f3
:1001b80094010000940100009401000094010000e3
:1001c80094010000940100009401000094010000d3
:1001d80094010000940100009401000094010000c3
:1001e80094010000940100009401000094010000b3
:0801f8009401000094010000d5
:020000040000fa
:10020000ef8120000e7f22000e0188000000000018
:1002100000012000200288000c00070080ef200071
:100220000100200011000700000020000000e00095
:10023000020032000000020000000000440c020036
:10024000000000000040da000000fe004440a90069
:10025000000020000000e000030032000000200049
:10026000a00188004440a800000006009101880019
:10027000800078000000eb0015003700e2804000ad
:1002800032a0b4009101ba00e280400032a0b40074
:100290009102ba00e280400032a0b4000002eb00fc
:1002a000472bde00f507b200602ce10004003a00a5
:1002b0000059eb008301e900fdff3e000400370018
:1002c0006128e100010032000082eb000400070019
:1002d0001101ba000200e000e8ff3a000000060049
:1002e0003159ba008301e9000c0032002159ba00eb
:1002f0008301e900080032000400e00003003a0036
:10030000e280400032a0b400f5ff370011d9ba00f6
:100310008301e900faff3a008100e800e180400033
:1003200032a0b400000006000040da000000fe0029
:10033000901c8800a11c880000000600e14f5000be
:1003400006003200e24f500006003200e04f50003d
:1003500009003a00701b800003003700f01a80008b
:1003600001003700701a8000680060000000e9009a
:100370004f00de00000006000040eb000000060019
:100380000002eb008180fb0009003700e04f5100c4
:100390000300320065372000e14f510001003200b8
:1003a0006538200065487a000402e8000000e80093
:1003b000810f5200f5ff350000000600401bde00f3
:1003c00007002000e1cf520008003200e2cf5200c7
:1003d0000a003200001b8800161b8800221b8800c0
:1003e0000003eb008483fb0012003700801a8800b2
:1003f000961a8800a21a8800f9ff3700001a8800b0
:10040000161a8800221a8800f5ff37006035200090
:10041000e1cf52000400320060362000e2cf5200eb
:1004200001003a006034200011707b000603e800f0
:100430008100e800870f5300f4ff35006f4262002f
:10044000e1cf52000a003200e2cf52001100320028
:10045000e0cf520018003a006f0262004322dd0034
:1004600075f82f00261b8000868262001700370077
:100470006f0262004322dd0075f82f00a21a80008f
:100480008282620004827200a41a88005e63a8005f
:10049000000006006f0262004322dd0075f82f00a5
:1004a000261a80008682620004827200241a880064
:1004b0004e63a800000006006f0262004322dd00c8
:1004c00075f82f00221b8000828262000482720075
:1004d000241b88006e63a80000000600889fbe00f1
:1004e000401cde00090020000003fb00cfb3de004b
:1004f000e50f5300e08f5b001e003e000660010028
:1005000005003700070037000a0037000d003700ec
:1005100010003700130037000118880018188800f1
:1005200016003700411888005818880062188800a3
:10053000130037008118880098188800a2188800d6
:100540000f003700c1188800d8188800e21888000a
:100550000b0037000119880018198800221988003b
:10056000070037004119880058198800621988006f
:100570000300370001188800181888002218880026
:100580004f04be0000000600401ade0005002000f7
:10059000e04f500006003200e14f500004003a00e6
:1005a000c1198800d4198800e219880000000600eb
:1005b0008119880094198800a2198800000006009b
:1005c000801c880000000600e04f5000040032004c
:1005d000e14f500002003a00f11b880000000600c5
:1005e000711c880000000600e14f5000030032003b
:1005f000e24f500005003a0002003700f11a88006f
:1006000000000600711a880000000600711b8800b7
:10061000000006009623ef008760a900c01c880038
:10062000e7826000cc2add00f4ff28000605800088
:10063000060262000502720004058800e88060007e
:10064000c308de00e1806000cb08dd00f47f2f00ee
:1006500075048000050262000102720074048800c3
:1006600000000600889fbe008a9fbe008c1f780095
:10067000ba000700c100330003866c006450e1003b
:100680002e0032006420e100330032006150e100ae
:100690002f0032006120e1003100320085855500d5
:1006a000eb07b00009002000080420000500370017
:1006b0000804440089844c000a003100060343000a
:1006c00087834b000001530081815b00f8ff3300fa
:1006d0000203be000800a0000804440089844c0006
:1006e000f6ff3900c639dd008301730001003200d6
:1006f000130020008904d1000884d3000998a300c6
:10070000050032000800a7000300a0008904d10002
:100710000884d3008b05e8008904d1000884d30045
:100720000001eb000281d2005100070001f0a1009e
:100730000cf0a70001f0a000990037006420e10050
:100740009b0032000801be000200be00f7ff370028
:100750006120e100960032006000b800f3ff37002e
:100760000000200001f82700f0ff37000001be0064
:10077000650007000470a70003f0a1006509b1003f
:10078000160032000d0035006828e1000600350033
:10079000f0ff2f00f1ff27000300e00013003b00f3
:1007a0000100280000000500000040008180480092
:1007b0008502e900fcff3a0008003700f88f42008c
:1007c00002003c008000eb00000005008100d10029
:1007d0000080d3008502e800fcff3a000300e0003f
:1007e00002003b0060001000e080180000000600de
:1007f0000001be00440007000470a70003f0a10040
:1008000003f8a30013003a006509b100100032009c
:10081000090035006928e1000200350001002800c8
:100820000000050000004000818048008502e900ca
:10083000fcff3a0000000600f88f4200050035007a
:100840008100d1000080d3008502e800fcff3a005f
:10085000000006008000eb00000005004f89de006c
:1008600082017800890037006011b80097003700d6
:1008700081002000618055000b003d000b0020002e
:1008800061fe2f000100e1001d0034008281710033
:10089000610164008904d1000884d3000000e800ed
:1008a000faff3a007100200061006400030070004c
:1008b000020060000900320061044400e0844c0042
:1008c0000988a500050032008b05e8006808e100f2
:1008d00002003a008904d1000884d300f20f2000fe
:1008e0000258e10005003d00c75ddd00f907b200d8
:1008f0008980750008007800000006000bf82700ca
:100900008b00780000000500c70ade00f107b20086
:10091000f50fb20008003200e1cf420002003200c1
:100920000170a00024000500810f7000010032005a
:100930000408050044000500810f700002003a0021
:10094000140005008502e9000000400081c0480055
:10095000fcff3b000170a000240005000004be0065
:10096000e9ff07000003be000405be000200be0050
:10097000e5ff0700844f7500000006000200be007e
:100980006450e100050036006420e10002003600fa
:100990000968a30001003a000800be000160a00041
:1009a0004f0678004f05be004f04be000000060051
:1009b000f0ff2f00f1ff2700f9ff3700889fbe00ee
:1009c0008a9fbe008c1f7800e4ff0700ebff330016
:1009d00003866c006450e100240032006420e100d2
:1009e000270032006150e100220032006120e10066
:1009f000210032008b854200eb07b1000134b800c2
:100a0000003ab8000804420089844a00013ab8005c
:100a10000030b8008880400009014a00040033001b
:100a20000000400081804800020149008b05e90078
:100a3000c909dd00830170000100320013002000ad
:100a4000c814de004814dd004709de001200b200c1
:100a5000c808de000884700085ff070001f0a100cf
:100a60000cf0a70001f0a000cdff37006120e100ed
:100a7000cfff32000801be000200be00f7ff3700c2
:100a80006150e100fcff3a00c9ff3700881f780081
:100a9000030478000300e00007003d006000100040
:100aa000e080180060011900e081190002003b009d
:100ab00001f02d00030037000400070008f0a70034
:100ac00001f0a0004f04780000000600889fbe00df
:100ad0008a9fbe00008270000402710004827100cf
:100ae000260032000004be000200be006011b80003
:100af0006b092000950220000182cf000a00390016
:100b00000541b1000082cf00070039000541b10066
:100b10000982cf00040039000541b1000882cf00ee
:100b2000010039000541b1000542520012003200b7
:100b30000a003b0082817100610164008100d100e4
:100b40000080d3008984d3000884d3008b05e8009b
:100b50000442e800f7ff3a000700370008044400a9
:100b600089844c0000004800818048008b05e90022
:100b70000442e900f9ff3a003dff07004f05be00bf
:080b80004f04be000000060056
:020000040000fa
:100b88000400fa00f400200005002000048fbe00d5
:100b9800c602a900c622a900c642a900c662a900c9
:100ba800c682a900c6a2a900ca02a900ca22a90031
:100bb800ca42a900ca62a900ca82a900caa2a90099
:100bc8001e00be0076040700ca02a900ca22a800b7
:100bd800ca42a900ca62a800ca82a900caa2a8007b
:100be8001e00be006e040700ca02a800ca22a800a0
:100bf800ca42a800ca62a800ca82a800caa2a8005d
:100c08001e00be0066040700ca02a800ca22a90086
:100c1800ca42a800ca62a900ca82a800caa2a9003a
:100c28001e00be005e040700ca02a900ca22a9006d
:100c3800ca42a900ca62a900ca82a900caa2a90018
:100c4800044080001540800061025200e0825a0092
:100c580004408800154088000080fa000000060063
:100c68000400fa00f400200005002000048fbe00f4
:100c7800c602a900c622a900c642a900c662a900e8
:100c8800c682a900c6a2a900ca02a800ca22a90051
:100c9800ca42a800ca62a900ca82a800caa2a900ba
:100ca8001e00be003e040700ca02a800ca22a8000f
:100cb800ca42a800ca62a800ca82a800caa2a8009c
:100cc8001e00be0036040700ca02a900ca22a800f6
:100cd800ca42a900ca62a800ca82a900caa2a8007a
:100ce8001e00be002e040700ca02a900ca22a900dd
:100cf800ca42a900ca62a900ca82a900caa2a90058
:100d08001e00be0026040700ca02a800ca22a900c5
:100d1800ca42a800ca62a900ca82a800caa2a90039
:100d2800044080001540800061024200e0824a00d1
:100d380004408800154088000080fa000000060082
:100d48000400fa000640800017408000244080001c
:100d580035408000041f530005975b001e00be004d
:100d6800bcfe07000002be000200200003f02300c2
:100d78000400be000fff07000002be000400be0012
:100d880078fe07000002be00048fbe000440800009
:100d98001540800024408800354088001e00be00b1
:100da800acfe07000002be00a2702d0033c2230073
:100db8000400be0029fe07000002be000400be00b9
:100dc80068fe07000002be000402780004007800f4
:100dd8000080fa00000006000000fa0004408000cd
:100de800154080000400be009afe07000002be0005
:100df8000200200003f023000400be00edfe0700ff
:100e08000002be000400be0056fe07000002be003d
:100e18000400be000080fa00000006000800fa0086
:100e2800c4408000d5408000048fbe00040020002c
:100e380005f0230024079800350798001e00be001f
:100e480084fe07000002be002e019000be01900043
:100e58000400be0001fe07000002be000400be0040
:100e680040fe07000002be000440880015408800cc
:100e78000080fa00000006000200fa000042eb00c1
:100e8800044f7800c7c2a900d342a900d202a80023
:100e9800cbc2a900d742a800a00020000100200072
:100ea800bf030700cbc2a900d742a900a0002000b9
:100eb80001002000ba030700a41680006102620046
:100ec800e00f520003003a0014c0b300044f78004a
:100ed800020037000042eb00044f78001e42780001
:100ee800044078000080fa00000006000200fa00c2
:100ef8000042eb00044f7800c7c2a900d342a90002
:100f0800d222a800cbc2a900d742a800a000200086
:100f180001002000a2030700cbc2a900d742a90004
:100f2800a0002000010020009d030700a4168000f7
:100f380062026200e00f520003003a0014c0b300de
:100f4800044f7800020037000042eb00044f78009d
:100f58001e427800044078000080fa000000060075
:100f68000400fa00100798001e0290000482ea00ac
:100f78008582ea00140798009516800004f02f0077
:100f88000482620094168800d302a900d322a90023
:100f9800d342a900d362a900c7c2a900d742a900b9
:100fa800d762a900cbc2a8001e029000044f7800a7
:100fb8001e42780061426200614262006142620042
:100fc8000482fb0061026200b6168000e5ff2f0074
:100fd8008502630004827200b41688001e02fb00ba
:100fe8000482d100044f78001e42780061426200fa
:100ff80061426200614262000482fb006102620099
:1010080004024200b6168000d5ff2f008502630057
:1010180004827200b41688001e02fb000482d1000c
:10102800044f78001e42780061426200614262000b
:10103800614262000482fb00610262004222dd001c
:10104800b6168000b5ff2f00850263000482720087
:10105800b41688001e02fb000482d100044f7800f9
:101068001e42780061426200614262006142620091
:101078000482fb00610262004322dd00b616800094
:1010880075ff2f008502630004827200b416880081
:101098001e02fb000482d100044f78001e42780033
:1010a8006142620061426200614262000482fb00a8
:1010b800610262004422dd00b6168000f5fe2f00b2
:1010c8008502630004827200b41688001e02fb00c9
:1010d8000482d100044f78001e4278006142620009
:1010e80061426200614262000482fb0061026200a8
:1010f8004522dd00b6168000f5fd2f00850263004d
:1011080004827200b41688001e02fb000482d1001b
:10111800044f78001e42780061426200614262001a
:10112800614262000482fb00610262004622dd0027
:10113800b6168000f5fb2f0085026300048272005a
:10114800b41688001e02fb000482d100044f780008
:101158001e427800614262006142620061426200a0
:101168000482fb00610262004722dd00b61680009f
:10117800f5f72f008502630004827200b416880018
:101188001e02fb000482d100044f7800d702a80099
:10119800400620000100200001030700d702a90033
:1011a8004006200001002000fd0207001e029000fa
:1011b8004822de00044f78001e4278006142620037
:1011c80061426200614262000482fb0061026200c7
:1011d800b6168000e5ff2f008502630004827200c6
:1011e800b41688001e02fb000482d100044f780068
:1011f8001e42780061426200614262006142620000
:101208000482fb006102620004024200b6168000fc
:10121800d5ff2f008502630004827200b41688008f
:101228001e02fb000482d100044f78001e427800a1
:101238006142620061426200614262000482fb0016
:10124800610262004222dd00b6168000b5ff2f0061
:101258008502630004827200b41688001e02fb0037
:101268000482d100044f78001e4278006142620077
:1012780061426200614262000482fb006102620016
:101288004322dd00b616800075ff2f00850263003b
:1012980004827200b41688001e02fb000482d1008a
:1012a800044f78001e427800614262006142620089
:1012b800614262000482fb00610262004422dd0098
:1012c800b6168000f5fe2f008502630004827200c6
:1012d800b41688001e02fb000482d100044f780077
:1012e8001e4278006142620061426200614262000f
:1012f8000482fb00610262004522dd00b616800010
:10130800f5fd2f008502630004827200b416880080
:101318001e02fb000482d100044f78001e427800b0
:101328006142620061426200614262000482fb0025
:10133800610262004622dd00b6168000f5fb2f0030
:101348008502630004827200b41688001e02fb0046
:101358000482d100044f78001e4278006142620086
:1013680061426200614262000482fb006102620025
:101378004722dd00b6168000f5f72f0085026300ce
:1013880004827200b41688001e02fb000482d10099
:10139800044f7800d722a800400620000100200052
:1013a8007f020700d722a900400620000100200084
:1013b8007b0207000080fa00000006000800fa001f
:1013c800a4002000040f78000400200005f023008a
:1013d8001407980025079800454080007440800055
:1013e80004825200340798003e029000e00f520039
:1013f8001e0032003e029000e00f5200020035004d
:101408001e02ea00010037001e02780045408000f5
:101418000502420044408800444080000500200046
:101428000400be000efd07000002be001e01900071
:10143800ae0190000400be0088fc07000002be0058
:101448000401be0000b0210071bb240083fc07002a
:101458000002be000400be00e3fc07000002be005c
:10146800040278001408880001003700000000001a
:101478000080fa00000006000400fa0056fe07008b
:101488000002be00048fbe0054408000e00f5200ee
:1014980006003a00a4408000b54080001e03be004c
:1014a800840f5300858f5b0009003400544080008e
:1014b800e10f520009003a00c4408000d540800086
:1014c8001e03be00840f5300858f5b0003003500a8
:1014d80005e1a9000002eb00744088000080fa00d2
:1014e800000006001000fa0004352c00050020005a
:1014f800048fbe0004f72200c5ff2f0024079800c0
:10150800350798004406200005002000440798008d
:101518005507980030fe07000002be0064079800d7
:10152800750798006e039000fe0390002e0290004d
:10153800be029000840f5300858f5b000e003c00b4
:101548002e039000be0390004e029000de02900031
:101558000403530085835b006e029000fe02900036
:10156800840f5300858f5b0003003c00200020009f
:101578007bfe0700130037006e029000fe02900009
:10158800be0f5200ae8f5a000c0035004e0290007c
:10159800de0290003e034200ae834a006e029000d5
:1015a800fe029000840f5300858f5b000300350016
:1015b800100020006afe07000200370030002000fb
:1015c80067fe07000080fa00000006000400fa0029
:1015d80001fe07000002be00048fbe0054408000d8
:1015e800e00f520009003a00a6408000b740800092
:1015f80084408000954080000602420087824a00ad
:10160800be0f5200ae8f5a000c003d0054408000bf
:10161800e10f52000b003a00c6408000d74080001e
:1016280084408000954080000402530085825b005e
:10163800be0f5200ae8f5a0002003c000419200071
:10164800744088000080fa00000006000000fa00dc
:10165800250880000400280004826200e00f520080
:101668000a003a0054408000610212005440880089
:10167800047122007440880000b42400c1042000d2
:10168800c701070005e1a8000100370000000000bd
:101698000080fa00000006000000fa0054408000b4
:1016a800040078000080fa00000006000400fa0038
:1016b80004f72200c5ff2f00048fbe000bfe0700b1
:1016c80000427800e14f520012003a0084c12f0016
:1016d800f5ff2f003e034200ae834a00a44080007d
:1016e800b5408000840f5300858f5b0009003d00e2
:1016f800a6408000b740800084c12f00f5ff2f006e
:101708000602420087824a00a4408800b54088004b
:1017180007003700f5fd070000427800e04f52004f
:1017280003003a001e02be00a4408800b5408800ad
:101738000080fa00000006000e00fa00500798002a
:1017480061079800de02900004782000848262001d
:1017580004182000848f520046003a006022b80026
:10176800048fbe000002eb00240798006e02900070
:101778006302420014427800044378006e0290002d
:101788006402420014427800844278006e0290009d
:1017980065024200144278008043eb0067479800d6
:1017a80076479800054f9800144f98006602470046
:1017b800240798002e0290001402be00e00f520089
:1017c800e08f5a0002003d00f40fb0000580b00021
:1017d800482bdd004822de0004027300c8aade00a0
:1017e8002e039000048bbe005e029000630262002c
:1017f800e10f520003003a002e029000341f7800d7
:10180800241778005e02900063026200e20f520023
:1018180003003a002e029000341f78002417780045
:101828005e02900063026200e30f520003003a0078
:101838002e029000341f7800241778001e00be0086
:1018480004fc07000002be000200200003f0230091
:101858000400be0081fb07000002be000400be00b9
:10186800c0fb07000002be00044088001540880045
:1018780001003700000000000080fa0000000600a8
:101888000400fa00000f7800110798000082eb00ae
:1018980044158800d302a900d322a900d702a900c1
:1018a800d722a900006c2c00d10220003c010700bf
:1018b800cda2a900d1a2a8009b00070057fd0700f0
:1018c80010002000a6fd0700ffff37003600f800d3
:1018d800809fbe00829fbe00849fbe00869fbe0080
:1018e8003400f80000002000a00188000000fa0081
:1018f8008460a90068ff070000027800e00f52002a
:1019080002003a009efc070001003700d4fc0700e3
:101918000080fa003400f9004f03be004f02be00f9
:101928004f01be004f00be003600f900004006001f
:101938003600f800809fbe00829fbe00849fbe00d4
:10194800869fbe003400f80000002000a001880037
:101958000000fa0084c0a9003cff070097fe0700ba
:10196800e0fe0700c4fe070018ff07000080fa0029
:101978003400f9004f03be004f02be004f01be0005
:101988004f00be003600f900004006003600f8009f
:10199800809fbe00829fbe00849fbe00869fbe00bf
:1019a8003400f80000002000a00188000400fa00bc
:1019b80084e0a9003dff07002ffd070000427800e2
:1019c800044f78002cfd0700004278001447980067
:1019d8001e427800e14f5200030032001e42900080
:1019e800e14f520002003a001400200001003700c5
:1019f8000002eb0024479800c5812000954278003a
:101a08002e42900084cf52000c0032002e409000ed
:101a18001ce8b700c481200014427800e04f52004f
:101a28000300320005e1a80011e1a8000400370016
:101a380005e1a90011e1a90001003700000000003c
:101a48000080fa003400f9004f03be004f02be00c8
:101a58004f01be004f00be003600f90000400600ee
:101a68003600f800809fbe00829fbe00849fbe00a3
:101a7800869fbe003400f80000002000a001880006
:101a88000a00fa008760a9009603a9009623a90016
:101a9800841c80006e026200ee0f520002003a00c1
:101aa80096c3a90018003700041c80004222de00fb
:101ab800f57f200005026200040f78000e82e8001e
:101ac8000400780074000700d481200014427800d4
:101ad800e04f52000a003a000e82e80084007800c5
:101ae8001e00780014ff0700740007008600070036
:101af8009800070014c0b300044078001de8b70040
:101b08008ee3a9007ee3a9000080fa003400f90002
:101b18004f03be004f02be004f01be004f00be0083
:101b28003600f900004006000000fa0000c020005e
:101b3800a1fa070000000000841c80004522de0096
:101b4800674262000482fb00e30f5200faff340090
:101b5800815b200020002000f3f90700d1ff2f004f
:101b680030002000a9fa07006011b80001602000c9
:101b78000040eb0057fa07006011b80011ff210080
:101b88000040eb007efa07006011b80001602000f9
:101b980010c0b3004ffa07006011b80011ff210010
:101ba80010c0b30076fa0700310020000040eb00b7
:101bb8008bfa0700410020000040eb0080fa070084
:101bc8003100200010c0b30085fa07004100200052
:101bd80010c0b3007afa07003100200020c0b3001b
:101be8007ffa07004100200020c0b30074fa070004
:101bf80000802a0070fa070000000000851c8000a1
:101c0800040e200004826200e00f5200fbff3a003d
:101c18000080fa00000006000600fa00000f7800b5
:101c28001107980042479800000000004e429000bb
:101c380004407800bff9070000427800e04f5200e6
:101c4800faff32004e4290009e039000057c20006f
:101c58009e826200452bdd009e0278004228dd004e
:101c6800f50f20008502600005037300c58f2f0063
:101c7800050363008442780084c0b30087007800bd
:101c8800825f20000300200006007800c9f90700e1
:101c98000080fa00000006000200fa00000f780039
:101ca8001e0278000041eb0081c0b30004007800f8
:101cb800b1f907000080fa00000006000000fa00f1
:101cc8000002eb0024088800240880000440a100da
:101cd8000450a1002408880004c4290014088800be
:101ce800a404800004c0a10004d0a00004e0a00067
:101cf800a40488008460a9008c60a80005e1a900fc
:101d08000080fa00000006000000fa000002eb0064
:101d180084088800840880000440a0000450a000c3
:101d280084088800943a200064088800b40480007d
:101d38000480a0000490a10004a0a000b4048800be
:101d480084c0a9008cc0a80011e1a9000080fa0095
:101d5800000006000000fa000002eb00940888006a
:101d6800940880000440a0000450a0009408880053
:101d78000471220074088800b404800004c0a10023
:101d880004d0a10004e0a000b404880084e0a90005
:101d98008ce0a80013e1a8000080fa00000006000b
:101da8000800fa0020079800310798006022b80060
:101db800048fbe0004003700140020000500200036
:101dc8001e0f42005e974a002e029000be0290004d
:101dd8001e03be00840f5300858f5b00f6ff35009d
:081de8000080fa000000060073
:020000040000fa
:101df000140800000a00000002000000702ffc0020
:101e0000ff50c3000000ff000000000000080000b9
:101e100014000000020000000000000000000000ac
:101e20000000000000000000000010002720cb0090
:081e30000000000000000000aa
:020000040000fa
:0200000401f009
:04000000e7bf000056
:020000040000fa
:0200000401f009
:04000400ff7f00007a
:020000040000fa
:0200000401f009
:040008007fff000076
:020000040000fa
:0200000401f009
:04000c00ffff0000f2
:020000040000fa
:0200000401f009
:04001000ffff0000ee
:020000040000fa
:0200000401f009
:04001400ffff0000ea
:020000040000fa
:0200000401f009
:04001800ffff0000e6
:00000001FF
